S02B00006D6F645F4672656552544F535F6578616D706C655F7465737465325F626172726963612E737265635C
S113000070260020F1260000ED260000ED260000F9
S113001000000000000000000000000000000000DC
S11300200000000000000000000000001328000091
S113003000000000000000002528000069280000DE
S1130040ED260000792B0000ED260000ED260000CF
S1130050ED260000ED260000ED260000ED26000050
S1130060ED2600009D140000AD140000BD14000036
S1130070CD140000DD140000ED140000ED26000096
S1130080ED260000ED260000ED260000ED26000020
S1130090ED2600000000000000000000ED26000036
S11300A0ED26000000000000ED2600000000000026
S11300B00000000010B5064C2378002B07D1054B37
S11300C0002B02D0044800E000BF0123237010BDC0
S11300D01C00002000000000F0340000084B10B5A4
S11300E0002B03D00749084800E000BF0748036815
S11300F0002B00D110BD064B002BFBD09847F9E72D
S11301000000000020000020F0340000F034000063
S11301100000000010B51B4B5B6B9B0704D5194A0C
S1130120536B0224A34353634A880B880C792343FB
S1130130134380246400A2420DD08A79002A01D09E
S113014004221343CA79002A01D040221343002811
S113015005D0172010BD802292001343EDE74A79A1
S113016017303F2AF6D81204FC2189030A401343AE
S1130170044A5363110080221201CB681342FCD05D
S11301800020E7E70008004010B51E4AD3690421A7
S11301900B43D3611C4B2022FF321A831A7D0523A3
S11301A0D20701D4180010BD03781B02C0229200AC
S11301B013404178C901FF220A4013438178490062
S11301C01E220A401343C27892048021C9020A40C5
S11301D0134302791204C02189020A4013430A4AD4
S11301E0536093685B035B0F084908249C400C80B0
S11301F093684B8043780B71138BDB05DB0F1B017A
S1130200D0E7C04600040040004000413800002010
S113021030B50400224A1088538843438B4206D2E7
S11302208022920118201F4BCB1893420ED81E4BEC
S11302305D688022D2022A435A602022FF321A8348
S11302401B7DDB0703D4184B5D60052030BD452CB6
S113025022D8A300154AD3589F46134B1B8BDB05AA
S113026003D5114B5D601020F0E7890849000E4B5F
S1130270D96103E0890849000B4BD961A52000022C
S11302800443094B1C80190001220B7D1342FCD04E
S1130290054B5D600020D9E7034B5D601720D5E76F
S11302A03800002000C07FFF004000415C300000A7
S11302B0F8B5254B1D885B886B431824834201D213
S11302C02000F8BD6B1E1842FAD1013C9542F7D3C9
S11302D01E4B1B7D123CDB07F2D51D4C1B4B1C80B7
S11302E01D0001242B7D2342FCD02024FF34174B16
S11302F01C83002A22D0012305009D430023571E9E
S113030009E0CE187678360234432C8002339BB24F
S113031002359A4204D9CC5CBB42F2DBA4B2F4E7C6
S1130320094B1B790024002BCAD13F2AC8D80022CC
S113033001000420074B98470400C1E7024B1B79D6
S11303400024002BF3D0BBE738000020004000411C
S113035044A5FFFF1102000070B5184B1D885B888F
S11303606B431824834201D2200070BD6B1E1842D7
S1130370FAD1013C9542F7D3114B1B7D123CDB07AC
S1130380F2D52024FF340E4B1C83002A14D0012301
S113039098430023561E04E002339BB202309A4273
S11303A008D90488A4B2CC54B342F5DACD18240A8F
S11303B06C70F1E70024D7E70024D5E7380000206B
S11303C000400041134B1A885B8853431821834231
S11303D001D2080070479200013A1042F9D10E4B45
S11303E01B7D1339DB07F4D50B4B2022FF321A8314
S11303F080084000D861094A1A80190001220B7D47
S11304001342FCD0044B198B1C200140481E81412F
S11304108900DEE7380000200040004102A5FFFF0C
S1130420134B2022FF321A8399684A03520F082380
S11304309340037041800F4B1B885B065B0F072BB7
S113044010D00622D21A042393404360094B1B8820
S113045007221340072B08D00722D21A0423934003
S11304608360704700234360F0E700238360F8E76C
S1130470004000410040800070B50402034E044D6A
S113048073681819A8470528FAD070BD40000020E9
S1130490C5030000F0B5DE4657464E464546E0B576
S11304A083B04D4B1B89002B00D18FE000254A4BB4
S11304B09A461F0027E00198484B98470434A4B299
S11304C0454B1B89A34218D9013B9C42F6D07A685C
S11304D0A301D35CFF2BF1D09E42EFD14B46D35CFA
S11304E04146515C9942E6D05946525C9A42E2D068
S11304F0A008C0B2394B9847E0E70435ADB2364B9B
S11305001B899D4217D2AB01984653465B6842460D
S11305109E5CFF2EF1D02C1DA4B22F4B1B899C4254
S113052009D2802242449146402242449346AA087A
S1130530D2B20192C8E7002B43D0274A977A516878
S113054000225E1E244D04E00132403190B29842F4
S11305500AD29642F8D0087884B2FF2CF4D0BC4278
S1130560F2D22818C272EFE73F2087221A49885432
S11305709D081FD04C6804210027013B13E0013281
S113058092B2914207D09A42F9D09001005DFF28BF
S1130590F5D00026F3E7002E09D10137BFB20431AC
S11305A089B2BD4206D00A1F92B20126EBE7872327
S11305B0094AD75403B03CBC90469946A246AB4680
S11305C0F0BD3F218723044AD154F3E73F21872319
S11305D0014AD154EEE7C0464000002079040000EF
S11305E0F8B50D008401054F054E7B6818194022AB
S11305F02900B0470528F8D0F8BDC04640000020C7
S113060059030000F8B50D008401054F054E7B68C1
S1130610181940222900B0470528F8D0F8BDC04673
S113062040000020B102000070B58401044E054D65
S11306307368191900220420A8470528F8D070BD52
S1130640400000201102000010B598B016AB002144
S1130650197001225A702E4A5268D206120F9A70EB
S1130660D97019712B4C16A8A0470528FBD013A8E4
S1130670294B9847149B16200B2B01D818B010BD9A
S1130680264C23811A00083A5208A2721B049B0AC2
S11306905B428022D2029446634463600022C823F2
S11306A0E2541F4B98478723E35C1A203F2BE5D085
S11306B06A461C4B13CB13C2184B1889013880B2FD
S11306C01100194B9847039B009A934219D1049B3C
S11306D0019A934217D1059B029A934215D103AB19
S11306E0DB7B1020012BC9D103AB1B7B012BC5D1B4
S11306F003AB5B7B002BC1D10122084B1A70002095
S1130700BCE71A20BAE71A20B8E71A20B6E7C046B1
S11307100040004189010000210400004000002045
S11307209504000074310000E105000070B594B038
S11307302F4C00228723E25400202E4B9847258912
S1130740042D25D90026042419E0A008C0B2294BA1
S1130750984704AD4022FF212800274B98472E706C
S113076029002000254B98472000254B9847013647
S1130770B6B20134A4B21E4B1D89A54208D9013D6D
S1130780AC42F6D003232340DFD0012BF1D8E0E7BD
S113079001AE1C4B320013CB13C204AC4022FF2128
S11307A02000154B9847019B049373686360B368FA
S11307B0A3600123E373237300236373A373013DD5
S11307C0EB17032018404519AD10E8B2094B9847C0
S11307D0074D2889013880B22100084B98472889A1
S11307E0013880B2064B9847074B984714B070BD48
S11307F040000020790400004B3000000506000092
S113080029060000743100009504000010B590B072
S11308100C00154B1A781F23002A02D1180010B0BF
S113082010BD114B9A7A18238242F7D9B0330E4A7D
S1130830D35C002B03D08823D35C83420CD00A4BB7
S11308401818C07A6946094B98473C2201A9200030
S1130850074B98470023E1E73C2203498C312000F1
S1130860034B98470023D9E740000020E10500002E
S11308703930000010B5C823084AD35C002B01D1DD
S1130880002010BD14008823D35CD318D87A044BFD
S113089098470022C823E254F2E7C04640000020F3
S11308A029060000F0B5DE4657464E464546E0B5FB
S11308B087B0040000915A4B1B781F20002B06D1EF
S11308C007B03CBC90469946A246AB46F0BD544B9B
S11308D09B7A0738A342F3D9C823514AD35C002B2F
S11308E005D08823D35CA34201D04E4B98474C4B90
S11308F01B19DE7A032331009943494B5868B3012D
S11309001B5CFF2B47D0751CEDB20431C9B2A94260
S113091057D06B1CDBB2AA01125CFF2A3CD01D002D
S1130920F5E705AAD218567069E005AFFF187D7087
S113093063E0707802993C4B9847394C2100883128
S1130940A8B23A4B98474B461B78E318DD72012254
S1130950C823E25401370236022F13D087235A46A4
S1130960D55CAD00ED19D047B146337801998B427F
S1130970DFD188232A4AD1543C22009903982C4B76
S11309809847DAE7444640462A4B98478723244A47
S1130990D454002094E73500214E8823F4543000C9
S11309A08C303C220099224B984731008831A8B200
S11309B01E4B98473419E5720122C823F2540020D3
S11309C07EE7B30898461B02154A5268D31805AA55
S11309D01978117003218E4356703D31595C917022
S11309E0711CD1708022985C4032995C0023B51C44
S11309F0033605AAD25C904297D08A4291D0023342
S1130A00042BF6D105AE0027054B9B46054B9A46B1
S1130A105B46883302930433039301949EE7C046F4
S1130A204000002075080000E105000005060000F4
S1130A303930000079040000F0B583B06B46DF1D47
S1130A40D8710B4E0B4C0122310020000A4DA847EF
S1130A5080229201094B5A61012239002000084B7F
S1130A609847002231002000A84703B0F0BDC046DB
S1130A7010060020D4050020D516000000440041D3
S1130A80C9170000F0B591B0604B9847604C232320
S1130A90237000236370A37002A901224A708B7033
S1130AA00A7023205B4B98472378D9090022002938
S1130AB004D15A09D20158498C4662441F26334056
S1130AC0012529009940916102AC2570002303930C
S1130AD0049323746374A574E57423752422A354C6
S1130AE0183A002108A84D4B984780235B02E36025
S1130AF04B4BA36201235B42E3624A4B23634A4BA1
S1130B0063634A4BA3614A4F22004A4938004A4B67
S1130B1098473C682000494B98470640B540484BED
S1130B201D603A68D369002BFCD123680222134369
S1130B30236001AC012363700022A27023702100A2
S1130B400D20344DA84721001720A84700203D4B15
S1130B50984736493C4B9847830018184000802238
S1130B6012042D4B5A6100284AD0384B5860002299
S1130B709A601900802252020B681342FCD0802232
S1130B801204254B9A61314B586000229A60190077
S1130B90802252020B681342FCD0802212041E4BA6
S1130BA09A61A8202A4CA0471F20A047D320A04721
S1130BB00020A0474020A047A120A047C820A0476C
S1130BC0DA20A0470220A0478120A0478F20A04719
S1130BD0A420A047A620A047D520A0478020A04756
S1130BE08D20A0471420A047DB20A0474020A04729
S1130BF0D920A047F120A047AF20A04711B0F0BDF5
S1130C0080221204044B9A61C7E7C046A10C00007D
S1130C101006002095100000004400414B300000F5
S1130C2003002200030036000300370040420F0097
S1130C30D4050020001C0042FD1400006D140000C7
S1130C4000E100E07D240000852E000010E000E0BB
S1130C50390A0000F0B583B06B46DF1DD8710B4E26
S1130C600B4C0122310020000A4DA847802292013A
S1130C70094B9A61012239002000084B9847002251
S1130C8031002000A84703B0F0BDC0461006002084
S1130C90D4050020D516000000440041C917000007
S1130CA070B50020084B98470500084CFA218900CC
S1130CB0A047074B186007492800A047064B186057
S1130CC00522064B1A6070BD7D240000852E0000AD
S1130CD00000002040420F000400002010E000E06B
S1130CE0014B18607047C0460C010020024B1B6882
S1130CF0C0011818425470470C010020024B1B68B5
S1130D00C0011818405C70470C010020F8B5CE46AD
S1130D10474680B58418802C03DD80225242121A83
S1130D20D2B2002A37D0CD08EC00091B01278F402E
S1130D303900FFB2012B19D0002B30D0022B2AD15D
S1130D400138C6B29219D4B2204B9946204B98462A
S1130D5021002800C8477840C2B20023210028009F
S1130D60C047013CE4B2B442F2D114E00138C6B247
S1130D709219D4B2154B9946154B98462100280078
S1130D80C8473843C2B2002321002800C047013CB1
S1130D90E4B2B442F2D10CBC90469946F8BD013895
S1130DA0C6B29219D4B2094B9946CF43084B984620
S1130DB021002800C8473840C2B20023210028007F
S1130DC0C047013CE4B2B442F2D1E4E7E10F0000D1
S1130DD0D90E0000F0B583B00090019208AA1778EC
S1130DE0002B0DD00139CEB29B19DCB2054D3B006E
S1130DF0019A21000098A847013CE4B2B442F6D11C
S1130E0003B0F0BD0D0D0000F0B5DE4657464E466A
S1130E104546E0B585B00400884615009B465B7ADC
S1130E205A46127A0021009129004046284EB047C4
S1130E305B461B78002B06D005B03CBC9046994617
S1130E40A246AB46F0BD5B461A7AD308520700D0DF
S1130E5001335A46527A92465A46977AE71B5246CB
S1130E6057435F43BFB25B465B689C466744029549
S1130E704346039320E06BB2002B0DDB0134E4B254
S1130E806D00EDB2A6420DD04346E31A4A461A421B
S1130E90F1D13D780137EEE70122029920000D4B94
S1130EA09847EBE7029B0133DBB202935346013BC5
S1130EB0DBB29A46002BBFD05B461E7A002EF1D0DF
S1130EC04644F6B2039C002507239946DCE7C04656
S1130ED0D50D0000790F0000F8B504000F001500CF
S1130EE0002B03D10D4B9847A84215D02A00390096
S1130EF020000B4B98470F263440B0202043094C68
S1130F00A0477806400F10231843A047300038400C
S1130F10A0472800044B9847F8BDC046FD0C0000CC
S1130F20ED0C0000390A0000550C0000F8B50D481E
S1130F300D4B98470D4B984740200D4B9847002583
S1130F4000260C4F34000123320021002800B8474A
S1130F500134E4B2802CF6D10135EDB2082DF1D183
S1130F60F8BDC04610010020E10C0000850A000015
S1130F70390A0000D90E0000F0B5C64600B50400D9
S1130F80150043B2002B01DB3F2902D904BC904673
S1130F90F0BDCF08FB00C91A01268E40F3B2984673
S1130FA0010038000C4B98470200012D09D0002D98
S1130FB00BD0022D0CD0002321003800074CA04791
S1130FC0E4E743460343DAB2F5E7B043C2B2F2E7DB
S1130FD043464340DAB2EEE7FD0C0000D90E0000B0
S1130FE010B5014B984710BDFD0C00000C4B1B685D
S1130FF0002B06D1EFF31083002B07D00022094BFE
S11310001A70074A136801331360704772B6BFF34E
S11310105F8F0022044B1A700132024B1A70F0E702
S1131020100500201405002014000020084B1A6845
S1131030013A1A601B68002B09D1064B1B78002B60
S113104005D00122044B1A70BFF35F8F62B670475C
S1131050100500201405002014000020F0B583B012
S113106001AC012565700027A770257021001320AD
S1131070064EB04780221203054B9A6127706570B3
S113108021001C20B04703B0F0BDC04695100000FD
S11310900044004100B583B001AB80221A700A7885
S11310A05A704A789A708A78DA701900014B984716
S11310B003B000BD8D260000F0B5DE4657464E460F
S11310C04546E0B587B08046049116001F00002213
S11310D0002300218B463F24012021000096019724
S11310E05C4603944446059413E02024641A0500E6
S11310F0E540A84614E0009C019D121BAB415C46F0
S11311004D462C43A346039C45462C430394013986
S113111025D3202464420C19E7D40500A540A84631
S113112004008C40A14692185B4114001D00059EEA
S11311304F463E40B446049E47463E40B24666464D
S113114057463E4303D00600264332002B00009C42
S1131150019D9D42DBD8CED19442D8D8CBE7039BE6
S11311605846190007B03CBC90469946A246AB4687
S1131170F0BD10B5490840230024814202D2180072
S113118010BD1C00091A631C9BB28842F9D9402384
S1131190FF2CF4D814800023F1E70000F0B583B0ED
S11311A00F00160008AA117804004C434022BC42E8
S11311B002D9100003B0F0BD002B14D102000800C6
S11311C00021194CA04701003A0000230020174CCD
S11311D0A04700220123121A8B41120C1B041A434C
S11311E032800022E5E70022012BF9D10A00002316
S11311F000210D4CA04702000B000092019338001F
S113120000210A4CA047050080239B0140229842FC
S1131210CFD8790FF800009A019BA047EA00821A00
S1131220D2B252032A43DBE79D2F0000B91000001D
S113123010B582B004000E4B1B78002B07D0002998
S113124005D10B4B5B78834210D01D200CE001A923
S11312500C701320074B98471320074B9847044BF7
S11312605C7001221A70002002B010BD0020FBE760
S1131270180500209525000009250000404B9842E0
S113128031D00AD93F4B98424DD03F4B98425AD067
S11312903E4B984237D0002070473D4B98420CD0CB
S11312A03C4B9842F7D1012917D000295DD002297F
S11312B015D0032915D00020EEE7012907D0002915
S11312C051D0022905D0032905D00020E4E7324893
S11312D0E2E73248E0E73248DEE73248DCE732480A
S11312E0DAE73248D8E7012907D000293FD002299C
S11312F005D0032905D00020CEE72D48CCE72D48A2
S1131300CAE72D48C8E7012907D0002931D00229AE
S113131005D0032905D00020BEE72848BCE72848AB
S1131320BAE72848B8E7012907D0002923D00229C1
S113133005D0032905D00020AEE72348ACE72348B5
S1131340AAE72348A8E7012907D0002915D00229D4
S113135005D0032905D000209EE71E489CE71E48BF
S11313609AE71E4898E71E4896E7032094E71D482D
S113137092E71D4890E71D488EE71D488CE7C0465C
S11313800010004200180042001C004200140042F9
S113139000080042000C00420300050003000600A0
S11313A0030007000300010003001E0003001F00E8
S11313B002000D0002000E0002000F0003001100E5
S11313C0030012000300130005003F0005003E0067
S11313D00500520003001700030018000300190061
S11313E00300040002000C00030010000500530079
S11313F00300160030B587B00B4B6A4632CB32C2BD
S113140032CB32C2009B83420BD001239A0069463F
S11314105258824206D00133062BF7D1002007B080
S113142030BD0023D8B2FAE714340000704700003E
S1131430F0B50A4B1B78002B0CD1094F094E0A4D0D
S11314400024DE515A1914600433182BF9D10122F7
S1131450024B1A708000024BC150F0BD1A050020E7
S11314601C0500202D1400001406002000B583B0D4
S113147009236A46137001335370013393700133A7
S1131480D3700133137101335371034B98476B4687
S1131490185603B000BDC046F513000010B5024B4A
S11314A01B680020984710BD1C05002010B5024B96
S11314B05B680120984710BD1C05002010B5024B45
S11314C09B680220984710BD1C05002010B5024BF4
S11314D0DB680320984710BD1C05002010B5024BA3
S11314E01B690420984710BD1C05002010B5024B51
S11314F05B690520984710BD1C050020F0B58BB032
S113150005000C00160029600B681C209B0701D500
S11315100BB0F0BD0B681738DB07F9D40800604B3B
S11315209847604A116A871C0123BB400B4313622E
S113153009A92427F35D0B701430C3B2019318007A
S1131540594B98470198594B9847F05D0021584BE7
S113155098473378012B38D02B000C3329002831DD
S1131560002204C38B42FCD10023EB62AB62002453
S1131570AB862B863633EC540133EC540133EC54F4
S1131580353B6B722C712868454B984707004949D5
S1131590494B9847BF00494BFD502F6804AB80224C
S11315A01A705C707F3A9A70DC703378002B02D129
S11315B0002204AB9A70B36A0593F36A0693336B03
S11315C00793736B089300240BE023680C221343E6
S11315D02360C1E738003A4B98470AE00134042CF1
S11315E010D0E1B2A30002AA0C201218D05800288F
S11315F0F0D0431CF2D004A90870000CC0B2314BE7
S11316009847EBE733786B71337CAB71B37CEB7148
S1131610337D2B72002202ABDA803378012B28D081
S11316207368B2681343F2681343317C727C002AF6
S113163003D1254A9278920701D580221343B27CC4
S1131640002A02D0802292021143F27C002A02D0A6
S1131650802292001143327D002A02D0802292011E
S113166011433A6813433B607B680B437B60002063
S11316704EE728680A4B98471430C0B2134B98477A
S1131680010002AB9A1DB069114B98470300172063
S1131690002B00D03CE702AB06331B783B73BFE75B
S11316A0F513000000040040952500000925000002
S11316B031120000951800003114000014060020B7
S11316C07D1200008D26000000200041B12500009D
S11316D07311000010B544791523012C01D01800B2
S11316E010BD047A0023002CF9D1002A58D04B787D
S11316F0002B44D003681B7EDB0710D40A78D10981
S11317000023002904D15309DB012E498C4663448C
S11317101F21114001228A409A610523DFE70A78DC
S1131720D4090023002C04D15309DB01254CA44621
S113173063441F2414400122A2405A6103681A7EA4
S1131740D20701D58A789A62C2790023002AC6D1C9
S113175002680421137E0B42FCD0117E002349074A
S1131760BDD5538B5B0701D5042353838379012BA8
S113177002D0936A0023B2E7936A0023AFE70A78A2
S1131780D1090023002904D15309DB010D498C46FA
S113179063441F21114001228A405A6100239EE7BD
S11317A00A78D1090023002904D15309DB01054932
S11317B08C4663441F21114001228A409A61002310
S11317C08DE7C04600440041F0B5DE4657464E461C
S11317D04546E0B583B08A463823C45C333B052CC8
S11317E002D01233002A4BD1180003B03CBC9046FF
S11317F09946A246AB46F0BD0237BFB241465346B6
S1131800595C09025B460B4318E08379012B2AD00B
S1131810936A013EB6B2664527D00268137E23421E
S1131820FCD07B1C9BB298465346DB5D9B4681797A
S11318300129E1D06946CB80CB884746117E2142FD
S113184002D0DB05DB0D9362C379002BE1D0026883
S1131850137E2B42FCD0137E2B42DAD0538B2B42C7
S1131860D3D05583D1E7936AD3E742790023012A81
S1131870BAD1016801320B7E1342FCD00023B3E7D6
S1131880013A96B2002701240425014B9C46C4E783
S1131890FFFF0000F8B58000704BC458266837235A
S11318A0E75C3622A25C1740337EB57D1D40EB0712
S11318B002D56379012B1ED06B0711D5738B5B079F
S11318C05AD5637A012B08D01E223823E254353BC3
S11318D06372023333753B074AD4B36A04237383B8
S11318E0AB0703D56379012B00D197E06DB2002DCE
S11318F000DAA9E0F8BD637A002B22D0637A002BCA
S1131900DAD02168E26A1378DBB2501CE062A07975
S1131910012827D09BB2DB05DB0D8B62A38E013B34
S11319209BB2A386A38E9BB2002BC5D10133337522
S1131930637A012BC0D1E379002BBDD10233B37597
S1131940BAE7474B1B88B362638E013B9BB2638645
S1131950638E9BB2002B01D1013333756379012B64
S1131960CCD0A9E75078000203430232E262D2E706
S11319702000A3699847B0E7637A012B28D0236835
S11319809B6ADB05DB0DDAB2A16A0A70A26A511CFC
S1131990A162A179012934D0238E013B9BB2238615
S11319A0238E9BB2002B00D09AE700223833E254F6
S11319B0343B3375637A022B29D0637A002B00D031
S11319C08EE7BB0700D48BE720002369984787E79D
S11319D023689B6A638E013B9BB26386638E9BB2D2
S11319E0002B00D07CE70433337500223433E254F7
S11319F0353B6372FB0700D472E72000E368984725
S1131A006EE71B0A5370A36A0133A362C4E77B0722
S1131A1000D465E720006369984761E7637A012B86
S1131A2000D063E7E379002B00D05FE7023333751E
S1131A300133637200223533E254FB0700D455E7C7
S1131A402000E368984751E78023337533767B069B
S1131A5000D44FE7636A200098474BE71406002040
S1131A602C060020F0B5DE4657464E464546E0B506
S1131A7091B005000C00160029600800BC4B984783
S1131A80020023680520DB0706D511B03CBC904654
S1131A909946A246AB46F0BD236817309B07F4D4A1
S1131AA0B449086A971C0123BB4003430B620FA986
S1131AB02D27F35D0B701432D3B202931800AE4B92
S1131AC098470298AD4B9847F05D0021AC4B98477E
S1131AD0F37A6B712423F35CAB712523F35CEB7114
S1131AE0F37E2B72337F6B722B6898461800A04BE1
S1131AF09847143000220E2306A98C4663441A80AA
S1131B00328A02928023DB019A4200D19EE00FD9EF
S1131B10C023DB01029A9A4200D192E080231B0287
S1131B209A4200D01FE1032306930023079308E0A1
S1131B3080239B019A4200D015E1102306930F3BAA
S1131B40079333680593F368039373690493337EAF
S1131B509B462623F35C9A4673689946002B00D172
S1131B60A0E080235B05994500D184E0737E002BBF
S1131B7002D0B37E424693732A68029FD369002B36
S1131B80FCD10E3306AA944663441B8842469381D3
S1131B90059B039A1343049A13434A4613431F4372
S1131BA05B461B021F4353465B071F432723F35C1B
S1131BB0002B01D104331F43737E9B02327F5202F8
S1131BC01343727F120213432422B25C5204134360
S1131BD02522B25C12041343B17AF27A11431943F9
S1131BE03389FF2B00D181E080225204174319432B
S1131BF02C23F35C002B03D1624B9B789B0701D50C
S1131C0080231F432A68D369002BFCD143465960C3
S1131C102A68D369002BFCD143461F600EAB802297
S1131C201A7000225A70DA709A70336B0A93736BCD
S1131C300B93B36B0C93F36B02930D9300270AAED3
S1131C4063E008230693073B07937AE73368059319
S1131C50F368039373690493337E9B462623F35CF2
S1131C609A4673689946002B18D080235B059945E2
S1131C7001D0002025E02723F35C002B00D075E77A
S1131C80336A1F00C0B2404B984701000E2206ABD6
S1131C909C46624438003D4B984712E00823069363
S1131CA0002307932723F35C002B0ED0069B00939D
S1131CB0079B0E2206A98C466244B16A306A344FEF
S1131CC0B847002800D0E0E650E7336A1F00C0B2EE
S1131CD02D4B98470100069B0093079B0E2206A8F4
S1131CE08446624438002A4FB847EAE7F37E002B63
S1131CF000D17DE78023DB041F4379E72000254BD7
S1131D00984707E00137042F0DD0F9B2BB0098596A
S1131D100028F3D0431CF5D00EA90870000CC0B203
S1131D201D4B9847EEE70023EB602B616B61AB61C1
S1131D30EB612B62AB626B620022EB85AB853033C7
S1131D40EA540133EA540133EA540133EA5428686B
S1131D50074B984704001149114B9847A400114BB5
S1131D60E550002091E61023069300230793E8E64C
S1131D70F51300000004004095250000092500002B
S1131D803112000000200041B12500007311000051
S1131D909D1100007D1200008D2600009D1F000093
S1131DA03114000014060020C2791C23002A01D13A
S1131DB018007047C28D92B2173B002AF8D103680D
S1131DC0DA69002AFCD1198502211A7E0A42FCD064
S1131DD00023EDE782791C23002A01D11800704703
S1131DE0828D92B2173B002AF8D10268107E400718
S1131DF0F4D5D369002BFCD1538BDBB298061DD0EC
S1131E00980703D5022353831833E7E7580703D50C
S1131E10042353831A33E1E7D80703D501235383FB
S1131E201233DBE7D80603D5102353833233D5E7C7
S1131E309B0603D5202353832133CFE7138D0B80D7
S1131E400023CBE7F0B5CE46474680B583B0050006
S1131E5001911720002A04D103B00CBC9046994686
S1131E60F0BDEB790530002BF6D02C68E369002B2C
S1131E70FCD1013A93B29946002601271F4B98469C
S1131E8011E0731C9BB2019A915D6A79012A17D003
S1131E9089B21E0028001A4B98474B46013B9BB25F
S1131EA09946434513D0237E3B42EAD1134B227E0D
S1131EB03A42E6D1012B19D0013B002BF7D1E0E7E0
S1131EC00236B6B2019AD35C1B021943E2E7237EC1
S1131ED09B070DD4094B0221227E0A420AD1012B11
S1131EE00AD0013B002BF7D10020B5E71220B3E75D
S1131EF00020B1E70020AFE71220ADE7FFFF0000AC
S1131F00A91D0000F0B5D64600B584B004000191C7
S1131F101720002A03D104B004BC9246F0BDA37973
S1131F200530002BF7D02668013A93B29A46002573
S1131F30042719E0002302AAD380911D2000154B29
S1131F4098470028E7D1691C89B202ABDB88019A63
S1131F5053556279012A14D00D005346013B9BB2BC
S1131F609A460D4B9A45D6D0337E3B42E2D10A4B7A
S1131F70327E3A42DED1012B09D0013B002BF7D14E
S1131F80D8E70235ADB21B0A019A5354E5E7122093
S1131F90C1E7C046D51D0000FFFF0000F8B5800072
S1131FA0624BC5582C68E369002BFCD1237EA67DC7
S1131FB01E403023EB5C3122AF5C1F40F30722D577
S1131FC0EB8D9BB2002B1CD0AA6A1378DBB2511C98
S1131FD0A962697901290ED09BB2DB05DB0D23854B
S1131FE0EB8D013B9BB2EB85002B0CD101332375A8
S1131FF00133A37507E0517809020B430232AA6248
S1132000EBE701232375B30706D5022323750022CA
S11320103133EA54FB071AD4730765D5AB8D9BB2F1
S1132020002B5FD0638BDBB21A0714D43F2213401A
S1132030002B34D09A0711D51A223223EA54303BAC
S113204063837B0750D528006B6998474CE02800D0
S1132050EB689847E0E737221340E9E75A0705D5CC
S11320601E223223EA542E3B6383EAE7DA0705D5BE
S113207013223223EA54313B6383E2E7DA0605D5BF
S113208042223223EA54223B6383DAE720221A42B3
S1132090D7D021323223EA54123B6383D1E7238D14
S11320A0DB05DB0DDAB2696A0A706A6A511C69627F
S11320B06979012910D0AB8D013B9BB2AB85002B14
S11320C012D10433237500222E33EA54BB070BD5F7
S11320D028002B69984707E01B0A53706B6A013389
S11320E06B62E8E704232375F30604D510232375F4
S11320F02376FB060ED4B30604D52023237523765A
S11321003B070BD4330704D5082323752376BB067A
S113211008D4F8BD2800EB699847ECE72800AB69C0
S11321209847EFE72B6A28009847F2E71406002047
S113213010B5082803D880001B4B1B589F4600206D
S113214030E01A4B18692DE0194B1B6A9B059B0F55
S11321501848D84026E0154B586923E0134B1B68F8
S113216000209B071ED512491022CB681A42FCD0CE
S11321700E4B1B685B0701D40F4813E000200F4B84
S113218098470A4B9B681B041B0C58430AE05023D6
S1132190074AD35C00205B0704D5044BD86801E0F0
S11321A08020000210BDC0462C34000034050020FD
S11321B00008004000127A00006CDC02B125000027
S11321C070B50C490B6A0478857840780122104078
S11321D080014026B34303432A40D2018020834335
S11321E013430322224012020348034013430B62A9
S11321F070BDC04600080040FFFCFFFF082803D85C
S11322008000254B1B589F46172044E0234A136A3D
S113221002210B43136200203DE0204A936902210E
S11322200B439361002036E01C4A138A02210B43BE
S1132230138200202FE0194A938A02210B439382D0
S1132240002028E016490B68022213430B60134B4D
S11322509A8419000E32CB681A42FCD0104A916855
S11322600E4BD96252689A6200229A841900103285
S1132270CB681A42FCD00A4B1B689BB2074A938472
S1132280002008E0054944228B5C022003438B5460
S1132290002000E000207047503400000008004097
S11322A034050020F0B5C64600B584B0C222D20081
S11322B0214B9A60214A53681E218B4353600123AA
S11322C06A46137000241E4DE0B26946A8470134E3
S11322D0252CF9D103A80024447001239846837067
S11322E00470184B98470620174B9847174B98478C
S11322F06B465C7006271F701C725C72102301937E
S113230069460320124EB0470320124DA847124BD2
S11323101C725C729C72DC72434601936B465C7067
S11323201F701C725C7269460020B0470020A847E9
S113233004B004BC9046F0BD0008004000400041D9
S113234095250000C1210000FD2100005D2300004F
S1132350812300003924000000040040064A9369E8
S113236008210B4393610122044B1A7019000B7866
S11323701342FCD17047C04600040040000C0040EA
S113238070B5060004000D782D0205434B78002B30
S113239002D08023DB021D434B7A002B02D0802322
S11323A01B031D434868012810D9431E184234D129
S11323B0022830D90223002201325B009842FBD864
S11323C012023243140080235B031D430B7A002B5B
S11323D002D080239B031D43134A53785BB2002B26
S11323E0FBDB124B9847124B1E700F4A53785BB2BB
S11323F0002BFBDB0C4B9C601A0053785BB2002B68
S1132400FBDB094A5368802149020B401D43556098
S1132410084B984770BD0022D2E70402344380235E
S11324209B021D43D2E7C046000C0040ED0F0000A4
S1132430080C00402D10000010B504000B4A53781E
S11324405BB2002BFBDB0A4B98470A4B1C70074A14
S113245053785BB2002BFBDB044A516880235B0298
S11324600B435360044B984710BDC046000C00401A
S1132470ED0F0000040C00402D10000070B50400A6
S11324801A4A53785BB2002BFBDB194B9847194B64
S11324901C70164A53785BB2002BFBDB134E70683A
S11324A0C004C00E144B98470500124B1C7076688C
S11324B0F602F60F114B1C700C4A53785BB2002BDA
S11324C0FBDB0A4B9C682402240C0D4B9847002E1E
S11324D007D1012C07D9210028000A4B9847050091
S11324E001E00134E540280070BDC046000C004006
S11324F0ED0F0000040C004031210000080C0040E6
S11325002D100000852E000010B50400064B9847DE
S1132510064B1C70064A53888021C9010B43538023
S1132520044B984710BDC046ED0F0000020C00405C
S1132530000C00402D10000010B504000F4B98470C
S11325400F4B1C700F4A53881B05180F53880E49F4
S11325500B40538053880D490B4053801100802257
S1132560D2014B881342FCD106494A88030206482B
S1132570024013434B80064B984710BDED0F0000FB
S1132580020C0040000C0040FFF0FFFFFFBFFFFF04
S11325902D10000010B50C7824020443024B984718
S11325A0A4B2024B5C8010BD39250000000C004031
S11325B010B50400064B9847064B1C70064B5C880C
S11325C02405240F054B98472000054B984710BD60
S11325D0ED0F0000020C0040000C00402D10000024
S11325E07D24000030B5D378002B35D11378802BAF
S11325F029D01B0680246402234354780225AC436B
S113260006D19478002C20D18024A4022343416075
S11326105478013C012C1CD90D042D0CA024E40594
S11326202C431C4384620D0CD02424062C431C43ED
S11326308462D478002C22D15B031CD59378012BBF
S11326401ED0416117E00023D7E7C024E4022343EE
S1132650DDE70D4C2340DFE741600C04240CA0238C
S1132660DB05234383620C0CD0231B0623438362C4
S1132670D378002B03D15378013B012B02D930BD11
S11326808161F8E78160FAE7FFFFFBFF10B50A00FC
S1132690C1090023002904D14309DB0105498C4603
S11326A063441F242040012181401800024B9847B5
S11326B010BDC04600440041E525000070470000FD
S11326C010B5054B9847054B9847054B9847054B64
S11326D09847054B984710BDA52200005D100000E7
S11326E0BD260000BD260000BD260000FEE7000058
S11326F0F8B52A4A2A4B9A4211D01A00294B9A4219
S11327000DD2294A03339B1A9B0801339B000022F4
S1132710234822498C58845004329A42FAD1234ADD
S1132720234B9A420AD2D34321495B1803218B439A
S113273004339B18002102C29342FCD11D4AFF219D
S11327401D4B8B439360FD3990235B001B4AD15092
S11327501B4AD3780325AB4302242343D370D37895
S11327600C27BB4308263343D370164B987B302287
S11327709043202210439873997BB9433143997352
S11327809A7BAA4322439A730F4A536880210B43CE
S113279053600E4B98470E4B9847FEE7F034000009
S11327A0000000201C000020040000201C00002069
S11327B07006002000ED00E0000000000070004101
S11327C0005000410048004100400041F12F00004A
S11327D09D2B000043684B609A688A609A68516038
S11327E099600861036801330360704703694268B4
S11327F0816891608268416851605A68904205D04E
S1132800002202611A68501E1860704782685A607C
S1132810F6E77047EFF3108072B67047002080F33C
S113282010887047EFF309800E4B1A682038106047
S1132830F0C044464D4656465F46F0C008B572B6F1
S113284000F0D2F862B60CBC116808681030F0C809
S1132850A046A946B246BB4680F309882038F0C892
S11328601847C0464C05002010B5074B9847040094
S1132870064B9847002803D080225205044B1A6067
S11328802000044B984710BD15280000C5280000FF
S113289004ED00E01F280000084B1B681B68002B98
S11328A007D0064B1B68DB68DB685A68044B1A6068
S11328B0704701225242024B1A60F9E7500500208A
S11328C018000020F0B583B0394B1B68002B61D190
S11328D0384B1A6801321A601E68002E12D1364B2A
S11328E01B681B68002B01D072B6FEE7324A1168E0
S11328F0324B186810601960314A13680133136051
S1132900304B9847304B1B6800249E4233D300243D
S1132910294F3B681B68002B29D0274B1B68DB68B9
S1132920DD686B689E4232D32B1D01931800274B40
S11329309847AB6A002B03D028001830234B9847E4
S1132940EB6A234A1268934201D9214A1360980022
S1132950C01880001F4B181801991F4B98471F4B34
S11329601B68EA6ADB6A9A42D3D30124D1E70122C5
S11329705242154B1A60194B1B68DA6A93009B1874
S11329809B00144A9B58012B09D9012407E00E4AE5
S11329901360F0E7124A1368013313600024114BEB
S11329A01B68002B00D00124200003B0F0BDC046FA
S11329B0C0050020CC05002050050020540500204F
S11329C0C80500209928000018000020ED27000009
S11329D0C405002058050020D52700004C05002020
S11329E0BC050020D005002010B5264B1B68002B29
S11329F021D10022244B1A60244B1A6893009B189F
S1132A009B00234A9B58002B19D1204B1B68002B99
S1132A100FD01E4A1E4C10001368013B136011684E
S1132A208B005B189B001B59002B08D10368002BFB
S1132A30F2D172B6FEE70122134B1A6010BD134B9C
S1132A401A68134893009918890041184C686468FF
S1132A504C609B189B000833C3189C4209D0930018
S1132A609A1892000A4B9A185368DA68094B1A604C
S1132A70E4E7606893009B189B000549CB185860F5
S1132A80EDE7C046C0050020D0050020C4050020A5
S1132A90580500204C05002030B591B08023DB059B
S1132AA0009300230193FF2269460A8100228B725E
S1132AB0CB72962189010891012124206C4621546E
S1132AC00130215425316354013163540A93053193
S1132AD063540131635405932382E376227622778B
S1132AE062761323A376627780235B030393124BEE
S1132AF00C93124B0D9301235B420E930F93104DD5
S1132B00104C6A4610492800A0470028F9D10C4D02
S1132B102C6820000D4B98471F2318401E3B834010
S1132B200B4A13602A68D369002BFCD12368022264
S1132B301343236011B030BD0300040003000500FB
S1132B4030060020651A0000000800426D140000E1
S1132B5000E100E010B5064B9847162802D0002883
S1132B6001D110BDFEE7034B9847014B9847F8E7A6
S1132B70490600002D07000010B5064B9B685B0555
S1132B8000D410BD8022D200024B9A60024B9847B9
S1132B90F7E7C0460008004075080000F0B5C646D7
S1132BA000B5A6B0A04B984700256B469D709F4B7F
S1132BB08022D2029A61802212039A6180225205F5
S1132BC09A6102266B461E705D7069461220984C0D
S1132BD0A04769461320A04769461C20A0476B46BE
S1132BE01D7001275F7069461620A04769460620BC
S1132BF0A04769460720A0478E4B98476B461D8027
S1132C005D809F71DF7110236A4613712033537105
S1132C1069460020884B9847884B5A6B32435A6365
S1132C208022D2005A60864B1E60864B9847864BA2
S1132C30984720A9854B0A0013CB13C203CB03C2C8
S1132C401B8813801AA9824B0A0013CB13C203CB2F
S1132C5003C21B88138014A97E4B0A0013CB13C232
S1132C6003CB03C21B88138002AA7B4B03CB03C292
S1132C701B781370794FB8467FE0784B5A7805ACCF
S1132C8022709A786270DA78A2705A79E2709A792E
S1132C902271DB79637121000020714B9847714BDD
S1132CA09847FF2323706370A370E37023716371EB
S1132CB0210000206C4B984700256C4C6C4E23007F
S1132CC0152229002020B0470635EDB2302DF6D16B
S1132CD002AC0025664E2078644B00222900B047E0
S1132CE001340635EDB2302DF5D1604C05AD2878B0
S1132CF02300002230215E4EB04768782300002272
S1132D003621B047A878230000223C21B047230095
S1132D10002242212020B0472300002248217820AD
S1132D20B047230000224E212020B047E87823003A
S1132D3000225421B0472879230000225A21B047A9
S1132D406879230000226021B04726E0494C16220E
S1132D5020A92000484DA84701220A212000A847A5
S1132D6020AD0024424E2878404B0E222100B0476B
S1132D7001350634E4B27E2CF5D100230022FA5446
S1132D800133082BFBD1092241463A483B4B984773
S1132D9043461B78702B00D16FE7244B1B6A5B0200
S1132DA0D4D5224B1B6A5B061BD5204B1B6A1B0622
S1132DB02FD4304C162214A920002F4DA8470122ED
S1132DC00A212000A84714AE0025294C3078274B4F
S1132DD00E222900A04701360635EDB27E2DF5D12D
S1132DE0CBE7244C16221AA92000234DA847012220
S1132DF00A212000A8471AAC00251D4E20781B4B41
S1132E000E222900B04701340635EDB27E2DF5D1EE
S1132E10B3E7184C05221A492000174DA847012290
S1132E200A212000A847A8E7C12600000044004169
S1132E3095100000552B000015010000000800400B
S1132E4000E100E0992A00002D0F00007C3400000E
S1132E5094340000AC340000C43400006406002044
S1132E60A5080000750800000D08000008000020F7
S1132E70090E000030060020451E0000051F00005A
S1132E8074340000002243088B4274D303098B423C
S1132E905FD3030A8B4244D3030B8B4228D3030C26
S1132EA08B420DD3FF22090212BA030C8B4202D3C8
S1132EB01212090265D0030B8B4219D300E0090AF0
S1132EC0C30B8B4201D3CB03C01A5241830B8B42F9
S1132ED001D38B03C01A5241430B8B4201D34B03E2
S1132EE0C01A5241030B8B4201D30B03C01A524147
S1132EF0C30A8B4201D3CB02C01A5241830A8B42CC
S1132F0001D38B02C01A5241430A8B4201D34B02B4
S1132F10C01A5241030A8B4201D30B02C01A524118
S1132F20CDD2C3098B4201D3CB01C01A52418309CC
S1132F308B4201D38B01C01A524143098B4201D306
S1132F404B01C01A524103098B4201D30B01C01A31
S1132F505241C3088B4201D3CB00C01A52418308AB
S1132F608B4201D38B00C01A524143088B4201D3D8
S1132F704B00C01A5241411A00D201465241104638
S1132F807047FFE701B5002000F006F802BDC04617
S1132F900029F7D076E770477047C046F0B5CE46B3
S1132FA0474615042D0C2E0080B50704140C3F0C65
S1132FB09946030C7E435D43674363437F19340C96
S1132FC0E4199C46A54203D980235B029846C44475
S1132FD04B46514343433604360C250C24046544C4
S1132FE0A4195918491920000CBC90469946F0BD03
S1132FF070B500260C4D0D4C641BA410A64209D1DB
S1133000002600F065FA0A4D0A4C641BA410A6427F
S113301005D170BDB300EB5898470136EEE7B30015
S1133020EB5898470136F2E7DC340000DC3400004A
S1133030DC340000E0340000002310B59A4200D1D3
S113304010BDCC5CC4540133F8E7030082189342EA
S113305000D1704719700133F9E7000098020000AD
S1133060980200007402000098020000740200003C
S11330705A0200005A020000980200009802000060
S113308098020000980200009802000098020000D4
S113309098020000980200009802000098020000C4
S11330A098020000980200009802000098020000B4
S11330B098020000980200009802000098020000A4
S11330C09802000098020000980200009802000094
S11330D09802000098020000980200009802000084
S11330E09802000098020000980200009802000074
S11330F09802000098020000980200009802000064
S11331009802000098020000980200009802000053
S11331109802000098020000980200009802000043
S11331209802000098020000980200009802000033
S11331309802000098020000980200009802000023
S11331409802000098020000980200009802000013
S11331509802000098020000980200007402000027
S1133160740200007C0200007C0200007C0200006B
S11331707C020000454574414D4F52502E756D45FB
S113318000000000000000202020202000205050DB
S113319050000000005050F850F850502078A070B3
S11331A028F020C0C810204098186090A040A89033
S11331B06860204000000000102040404020104083
S11331C0201010102040005020F820500000202033
S11331D0F820200000000000602040000000F800FB
S11331E00000000000000060600008102040800023
S11331F0708898A8C888702060202020207070886B
S113320008102040F8F810201008887010305090F2
S1133210F81010F880F008088870304080F0888832
S113322070F808102040404070888870888870705A
S1133230888878081060006060006060000060604A
S113324000602040081020402010080000F800F81A
S1133250000080402010204080708808102000204A
S113326070880868A8A87070888888F88888F088AA
S113327088F08888F070888080808870E0908888E2
S11332808890E0F88080F08080F8F88080E080808A
S11332908070888080988870888888F8888888708A
S11332A0202020202070381010101090608890A0EA
S11332B0C0A09088808080808080F888D8A8888882
S11332C088888888C8A8988888708888888888703A
S11332D0F08888F080808070888888A89068F0885A
S11332E088F0A09088788080700808F0F82020206A
S11332F020202088888888888870888888888850D2
S113330020888888A8A8D8888888502050888888E9
S1133310885020202020F80810204080F8382020F1
S11333202020203800804020100800E020202020A9
S113333020E020508800000000000000000000F899
S11333404020100000000000007008788878808019
S1133350B0C88888F0000070808088700808689879
S113336088887800007088F88070304840E04040D9
S113337040000078887808308080B0C88888882029
S113338000602020207010003010109060404048F1
S113339050605048602020202020700000D0A8A851
S11333A088880000B0C88888880000708888887081
S11333B00000F088F0808000006898780808000019
S11333C0B0C8808080000070807008F04040E04009
S11333D040483000008888889868000088888850B1
S11333E02000008888A8A850000088502050880039
S11333F00088887808700000F8102040F810202019
S11334004020201020202020202020402020102098
S11334102040000000080042000C0042001000425E
S11334200014004200180042001C00424221000027
S11334303E2100003E210000A0210000A021000048
S113344056210000482100005C2100008E2100006C
S11334502822000008220000082200009422000014
S11334601A220000362200000C2200004422000030
S1133470842200004E6F6E650A00000053414D52D5
S113348032315F626172557020202020202020207C
S11334902000000053414D5232315F626172446F2B
S11334A0776E2020202020202000000053414D5220
S11334B032315F7265736574454550524F4D2E2EFF
S11334C02E000000506C616361723A20000000001D
S11334D0F8B5C046F8BC08BC9E467047DD00000045
S11334E0F8B5C046F8BC08BC9E467047B50000005D
S11334F0401F0000080000000000000080310000B0
S10F35000607207D01000000FFFFFFFF14
S90326F1E5
