S02B00006D6F645F4672656552544F535F6578616D706C655F7465737465325F626172726963612E737265635C
S1130000D8260020E9250000E5250000E5250000AC
S113001000000000000000000000000000000000DC
S11300200000000000000000000000002F27000076
S113003000000000000000004127000085270000A8
S1130040E5250000952A0000E5250000E5250000CF
S1130050E5250000E5250000E5250000E525000074
S1130060E52500009D140000AD140000BD1400003F
S1130070CD140000DD140000ED140000E52500009F
S1130080E5250000E5250000E5250000E525000044
S1130090E52500000000000000000000E525000048
S11300A0E525000000000000E52500000000000038
S11300B00000000010B5064C2378002B07D1054B37
S11300C0002B02D0044800E000BF0123237010BDC0
S11300D08000002000000000983B0000084B10B591
S11300E0002B03D00749084800E000BF0748036815
S11300F0002B00D110BD064B002BFBD09847F9E72D
S11301000000000084000020983B0000983B0000A1
S11301100000000010B51B4B5B6B9B0704D5194A0C
S1130120536B0224A34353634A880B880C792343FB
S1130130134380246400A2420DD08A79002A01D09E
S113014004221343CA79002A01D040221343002811
S113015005D0172010BD802292001343EDE74A79A1
S113016017303F2AF6D81204FC2189030A401343AE
S1130170044A5363110080221201CB681342FCD05D
S11301800020E7E70008004010B51E4AD3690421A7
S11301900B43D3611C4B2022FF321A831A7D0523A3
S11301A0D20701D4180010BD03781B02C0229200AC
S11301B013404178C901FF220A4013438178490062
S11301C01E220A401343C27892048021C9020A40C5
S11301D0134302791204C02189020A4013430A4AD4
S11301E0536093685B035B0F084908249C400C80B0
S11301F093684B8043780B71138BDB05DB0F1B017A
S1130200D0E7C04600040040004000419C000020AC
S113021030B50400224A1088538843438B4206D2E7
S11302208022920118201F4BCB1893420ED81E4BEC
S11302305D688022D2022A435A602022FF321A8348
S11302401B7DDB0703D4184B5D60052030BD452CB6
S113025022D8A300154AD3589F46134B1B8BDB05AA
S113026003D5114B5D601020F0E7890849000E4B5F
S1130270D96103E0890849000B4BD961A52000022C
S11302800443094B1C80190001220B7D1342FCD04E
S1130290054B5D600020D9E7034B5D601720D5E76F
S11302A09C00002000C07FFF00400041CC360000CD
S11302B0F8B5254B1D885B886B431824834201D213
S11302C02000F8BD6B1E1842FAD1013C9542F7D3C9
S11302D01E4B1B7D123CDB07F2D51D4C1B4B1C80B7
S11302E01D0001242B7D2342FCD02024FF34174B16
S11302F01C83002A22D0012305009D430023571E9E
S113030009E0CE187678360234432C8002339BB24F
S113031002359A4204D9CC5CBB42F2DBA4B2F4E7C6
S1130320094B1B790024002BCAD13F2AC8D80022CC
S113033001000420074B98470400C1E7024B1B79D6
S11303400024002BF3D0BBE79C00002000400041B8
S113035044A5FFFF1102000070B5184B1D885B888F
S11303606B431824834201D2200070BD6B1E1842D7
S1130370FAD1013C9542F7D3114B1B7D123CDB07AC
S1130380F2D52024FF340E4B1C83002A14D0012301
S113039098430023561E04E002339BB202309A4273
S11303A008D90488A4B2CC54B342F5DACD18240A8F
S11303B06C70F1E70024D7E70024D5E79C00002007
S11303C000400041134B1A885B8853431821834231
S11303D001D2080070479200013A1042F9D10E4B45
S11303E01B7D1339DB07F4D50B4B2022FF321A8314
S11303F080084000D861094A1A80190001220B7D47
S11304001342FCD0044B198B1C200140481E81412F
S11304108900DEE79C0000200040004102A5FFFFA8
S1130420134B2022FF321A8399684A03520F082380
S11304309340037041800F4B1B885B065B0F072BB7
S113044010D00622D21A042393404360094B1B8820
S113045007221340072B08D00722D21A0423934003
S11304608360704700234360F0E700238360F8E76C
S1130470004000410040800070B50402034E044D6A
S113048073681819A8470528FAD070BDA400002085
S1130490C5030000F0B5DE4657464E464546E0B576
S11304A083B04D4B1B89002B00D18FE000254A4BB4
S11304B09A461F0027E00198484B98470434A4B299
S11304C0454B1B89A34218D9013B9C42F6D07A685C
S11304D0A301D35CFF2BF1D09E42EFD14B46D35CFA
S11304E04146515C9942E6D05946525C9A42E2D068
S11304F0A008C0B2394B9847E0E70435ADB2364B9B
S11305001B899D4217D2AB01984653465B6842460D
S11305109E5CFF2EF1D02C1DA4B22F4B1B899C4254
S113052009D2802242449146402242449346AA087A
S1130530D2B20192C8E7002B43D0274A977A516878
S113054000225E1E244D04E00132403190B29842F4
S11305500AD29642F8D0087884B2FF2CF4D0BC4278
S1130560F2D22818C272EFE73F2087221A49885432
S11305709D081FD04C6804210027013B13E0013281
S113058092B2914207D09A42F9D09001005DFF28BF
S1130590F5D00026F3E7002E09D10137BFB20431AC
S11305A089B2BD4206D00A1F92B20126EBE7872327
S11305B0094AD75403B03CBC90469946A246AB4680
S11305C0F0BD3F218723044AD154F3E73F21872319
S11305D0014AD154EEE7C046A4000020790400008B
S11305E0F8B50D008401054F054E7B6818194022AB
S11305F02900B0470528F8D0F8BDC046A400002063
S113060059030000F8B50D008401054F054E7B68C1
S1130610181940222900B0470528F8D0F8BDC04673
S1130620A4000020B102000070B58401044E054D01
S11306307368191900220420A8470528F8D070BD52
S1130640A40000201102000010B598B016AB0021E0
S1130650197001225A702E4A5268D206120F9A70EB
S1130660D97019712B4C16A8A0470528FBD013A8E4
S1130670294B9847149B16200B2B01D818B010BD9A
S1130680264C23811A00083A5208A2721B049B0AC2
S11306905B428022D2029446634463600022C823F2
S11306A0E2541F4B98478723E35C1A203F2BE5D085
S11306B06A461C4B13CB13C2184B1889013880B2FD
S11306C01100194B9847039B009A934219D1049B3C
S11306D0019A934217D1059B029A934215D103AB19
S11306E0DB7B1020012BC9D103AB1B7B012BC5D1B4
S11306F003AB5B7B002BC1D10122084B1A70002095
S1130700BCE71A20BAE71A20B8E71A20B6E7C046B1
S1130710004000418901000021040000A4000020E1
S113072095040000E4370000E105000070B594B0C2
S11307302F4C00228723E25400202E4B9847258912
S1130740042D25D90026042419E0A008C0B2294BA1
S1130750984704AD4022FF212800274B98472E706C
S113076029002000254B98472000254B9847013647
S1130770B6B20134A4B21E4B1D89A54208D9013D6D
S1130780AC42F6D003232340DFD0012BF1D8E0E7BD
S113079001AE1C4B320013CB13C204AC4022FF2128
S11307A02000154B9847019B049373686360B368FA
S11307B0A3600123E373237300236373A373013DD5
S11307C0EB17032018404519AD10E8B2094B9847C0
S11307D0074D2889013880B22100084B98472889A1
S11307E0013880B2064B9847074B984714B070BD48
S11307F0A4000020790400008B2E000005060000F0
S113080029060000E43700009504000010B590B0FC
S11308100C00154B1A781F23002A02D1180010B0BF
S113082010BD114B9A7A18238242F7D9B0330E4A7D
S1130830D35C002B03D08823D35C83420CD00A4BB7
S11308401818C07A6946094B98473C2201A9200030
S1130850074B98470023E1E73C2203498C312000F1
S1130860034B98470023D9E7A4000020E1050000CA
S1130870792E000010B5C823084AD35C002B01D19F
S1130880002010BD14008823D35CD318D87A044BFD
S113089098470022C823E254F2E7C046A40000208F
S11308A029060000F0B5DE4657464E464546E0B5FB
S11308B087B0040000915A4B1B781F20002B06D1EF
S11308C007B03CBC90469946A246AB46F0BD544B9B
S11308D09B7A0738A342F3D9C823514AD35C002B2F
S11308E005D08823D35CA34201D04E4B98474C4B90
S11308F01B19DE7A032331009943494B5868B3012D
S11309001B5CFF2B47D0751CEDB20431C9B2A94260
S113091057D06B1CDBB2AA01125CFF2A3CD01D002D
S1130920F5E705AAD218567069E005AFFF187D7087
S113093063E0707802993C4B9847394C2100883128
S1130940A8B23A4B98474B461B78E318DD72012254
S1130950C823E25401370236022F13D087235A46A4
S1130960D55CAD00ED19D047B146337801998B427F
S1130970DFD188232A4AD1543C22009903982C4B76
S11309809847DAE7444640462A4B98478723244A47
S1130990D454002094E73500214E8823F4543000C9
S11309A08C303C220099224B984731008831A8B200
S11309B01E4B98473419E5720122C823F2540020D3
S11309C07EE7B30898461B02154A5268D31805AA55
S11309D01978117003218E4356703D31595C917022
S11309E0711CD1708022985C4032995C0023B51C44
S11309F0033605AAD25C904297D08A4291D0023342
S1130A00042BF6D105AE0027054B9B46054B9A46B1
S1130A105B46883302930433039301949EE7C046F4
S1130A20A400002075080000E10500000506000090
S1130A30792E000079040000F0B583B06B46DF1D09
S1130A40D8710B4E0B4C0122310020000A4DA847EF
S1130A5080229201094B5A61012239002000084B7F
S1130A609847002231002000A84703B0F0BDC046DB
S1130A708006002044060020D516000000440041F2
S1130A80C9170000F0B591B0604B9847604C232320
S1130A90237000236370A37002A901224A708B7033
S1130AA00A7023205B4B98472378D9090022002938
S1130AB004D15A09D20158498C4662441F26334056
S1130AC0012529009940916102AC2570002303930C
S1130AD0049323746374A574E57423752422A354C6
S1130AE0183A002108A84D4B984780235B02E36025
S1130AF04B4BA36201235B42E3624A4B23634A4BA1
S1130B0063634A4BA3614A4F22004A4938004A4B67
S1130B1098473C682000494B98470640B540484BED
S1130B201D603A68D369002BFCD123680222134369
S1130B30236001AC012363700022A27023702100A2
S1130B400D20344DA84721001720A84700203D4B15
S1130B50984736493C4B9847830018184000802238
S1130B6012042D4B5A6100284AD0384B5860002299
S1130B709A601900802252020B681342FCD0802232
S1130B801204254B9A61314B586000229A60190077
S1130B90802252020B681342FCD0802212041E4BA6
S1130BA09A61A8202A4CA0471F20A047D320A04721
S1130BB00020A0474020A047A120A047C820A0476C
S1130BC0DA20A0470220A0478120A0478F20A04719
S1130BD0A420A047A620A047D520A0478020A04756
S1130BE08D20A0471420A047DB20A0474020A04729
S1130BF0D920A047F120A047AF20A04711B0F0BDF5
S1130C0080221204044B9A61C7E7C046A10C00007D
S1130C108006002095100000004400418B2E000047
S1130C2003002200030036000300370040420F0097
S1130C3044060020001C0042FD1400006D14000056
S1130C4000E100E075230000C52C000010E000E086
S1130C50390A0000F0B583B06B46DF1DD8710B4E26
S1130C600B4C0122310020000A4DA847802292013A
S1130C70094B9A61012239002000084B9847002251
S1130C8031002000A84703B0F0BDC0468006002014
S1130C9044060020D516000000440041C917000096
S1130CA070B50020084B98470500084CFA218900CC
S1130CB0A047074B186007492800A047064B186057
S1130CC00522064B1A6070BD75230000C52C000078
S1130CD00000002040420F000400002010E000E06B
S1130CE0014B18607047C04670010020024B1B681E
S1130CF0C00118184254704770010020024B1B6851
S1130D00C0011818405C704770010020F8B5CE4649
S1130D10474680B58418802C03DD80225242121A83
S1130D20D2B2002A37D0CD08EC00091B01278F402E
S1130D303900FFB2012B19D0002B30D0022B2AD15D
S1130D400138C6B29219D4B2204B9946204B98462A
S1130D5021002800C8477840C2B20023210028009F
S1130D60C047013CE4B2B442F2D114E00138C6B247
S1130D709219D4B2154B9946154B98462100280078
S1130D80C8473843C2B2002321002800C047013CB1
S1130D90E4B2B442F2D10CBC90469946F8BD013895
S1130DA0C6B29219D4B2094B9946CF43084B984620
S1130DB021002800C8473840C2B20023210028007F
S1130DC0C047013CE4B2B442F2D1E4E7E10F0000D1
S1130DD0D90E0000F0B583B00090019208AA1778EC
S1130DE0002B0DD00139CEB29B19DCB2054D3B006E
S1130DF0019A21000098A847013CE4B2B442F6D11C
S1130E0003B0F0BD0D0D0000F0B5DE4657464E466A
S1130E104546E0B585B00400884615009B465B7ADC
S1130E205A46127A0021009129004046284EB047C4
S1130E305B461B78002B06D005B03CBC9046994617
S1130E40A246AB46F0BD5B461A7AD308520700D0DF
S1130E5001335A46527A92465A46977AE71B5246CB
S1130E6057435F43BFB25B465B689C466744029549
S1130E704346039320E06BB2002B0DDB0134E4B254
S1130E806D00EDB2A6420DD04346E31A4A461A421B
S1130E90F1D13D780137EEE70122029920000D4B94
S1130EA09847EBE7029B0133DBB202935346013BC5
S1130EB0DBB29A46002BBFD05B461E7A002EF1D0DF
S1130EC04644F6B2039C002507239946DCE7C04656
S1130ED0D50D0000790F0000F8B504000F001500CF
S1130EE0002B03D10D4B9847A84215D02A00390096
S1130EF020000B4B98470F263440B0202043094C68
S1130F00A0477806400F10231843A047300038400C
S1130F10A0472800044B9847F8BDC046FD0C0000CC
S1130F20ED0C0000390A0000550C0000F8B50D481E
S1130F300D4B98470D4B984740200D4B9847002583
S1130F4000260C4F34000123320021002800B8474A
S1130F500134E4B2802CF6D10135EDB2082DF1D183
S1130F60F8BDC04674010020E10C0000850A0000B1
S1130F70390A0000D90E0000F0B5C64600B50400D9
S1130F80150043B2002B01DB3F2902D904BC904673
S1130F90F0BDCF08FB00C91A01268E40F3B2984673
S1130FA0010038000C4B98470200012D09D0002D98
S1130FB00BD0022D0CD0002321003800074CA04791
S1130FC0E4E743460343DAB2F5E7B043C2B2F2E7DB
S1130FD043464340DAB2EEE7FD0C0000D90E0000B0
S1130FE010B5014B984710BDFD0C00000C4B1B685D
S1130FF0002B06D1EFF31083002B07D00022094BFE
S11310001A70074A136801331360704772B6BFF34E
S11310105F8F0022044B1A700132024B1A70F0E702
S1131020740500207805002014000020084B1A687D
S1131030013A1A601B68002B09D1064B1B78002B60
S113104005D00122044B1A70BFF35F8F62B670475C
S1131050740500207805002014000020F0B583B04A
S113106001AC012565700027A770257021001320AD
S1131070064EB04780221203054B9A6127706570B3
S113108021001C20B04703B0F0BDC04695100000FD
S11310900044004100B583B001AB80221A700A7885
S11310A05A704A789A708A78DA701900014B984716
S11310B003B000BD85250000F0B5DE4657464E4618
S11310C04546E0B587B08046049116001F00002213
S11310D0002300218B463F24012021000096019724
S11310E05C4603944446059413E02024641A0500E6
S11310F0E540A84614E0009C019D121BAB415C46F0
S11311004D462C43A346039C45462C430394013986
S113111025D3202464420C19E7D40500A540A84631
S113112004008C40A14692185B4114001D00059EEA
S11311304F463E40B446049E47463E40B24666464D
S113114057463E4303D00600264332002B00009C42
S1131150019D9D42DBD8CED19442D8D8CBE7039BE6
S11311605846190007B03CBC90469946A246AB4687
S1131170F0BD10B5490840230024814202D2180072
S113118010BD1C00091A631C9BB28842F9D9402384
S1131190FF2CF4D814800023F1E70000F0B583B0ED
S11311A00F00160008AA117804004C434022BC42E8
S11311B002D9100003B0F0BD002B14D102000800C6
S11311C00021194CA04701003A0000230020174CCD
S11311D0A04700220123121A8B41120C1B041A434C
S11311E032800022E5E70022012BF9D10A00002316
S11311F000210D4CA04702000B000092019338001F
S113120000210A4CA047050080239B0140229842FC
S1131210CFD8790FF800009A019BA047EA00821A00
S1131220D2B252032A43DBE7DD2D0000B9100000DF
S113123010B582B004000E4B1B78002B07D0002998
S113124005D10B4B5B78834210D01D200CE001A923
S11312500C701320074B98471320074B9847044BF7
S11312605C7001221A70002002B010BD0020FBE760
S11312707C0500208D24000001240000404B98428E
S113128031D00AD93F4B98424DD03F4B98425AD067
S11312903E4B984237D0002070473D4B98420CD0CB
S11312A03C4B9842F7D1012917D000295DD002297F
S11312B015D0032915D00020EEE7012907D0002915
S11312C051D0022905D0032905D00020E4E7324893
S11312D0E2E73248E0E73248DEE73248DCE732480A
S11312E0DAE73248D8E7012907D000293FD002299C
S11312F005D0032905D00020CEE72D48CCE72D48A2
S1131300CAE72D48C8E7012907D0002931D00229AE
S113131005D0032905D00020BEE72848BCE72848AB
S1131320BAE72848B8E7012907D0002923D00229C1
S113133005D0032905D00020AEE72348ACE72348B5
S1131340AAE72348A8E7012907D0002915D00229D4
S113135005D0032905D000209EE71E489CE71E48BF
S11313609AE71E4898E71E4896E7032094E71D482D
S113137092E71D4890E71D488EE71D488CE7C0465C
S11313800010004200180042001C004200140042F9
S113139000080042000C00420300050003000600A0
S11313A0030007000300010003001E0003001F00E8
S11313B002000D0002000E0002000F0003001100E5
S11313C0030012000300130005003F0005003E0067
S11313D00500520003001700030018000300190061
S11313E00300040002000C00030010000500530079
S11313F00300160030B587B00B4B6A4632CB32C2BD
S113140032CB32C2009B83420BD001239A0069463F
S11314105258824206D00133062BF7D1002007B080
S113142030BD0023D8B2FAE7843A000070470000C8
S1131430F0B50A4B1B78002B0CD1094F094E0A4D0D
S11314400024DE515A1914600433182BF9D10122F7
S1131450024B1A708000024BC150F0BD7E05002083
S1131460800500202D1400008406002000B583B000
S113147009236A46137001335370013393700133A7
S1131480D3700133137101335371034B98476B4687
S1131490185603B000BDC046F513000010B5024B4A
S11314A01B680020984710BD8005002010B5024B32
S11314B05B680120984710BD8005002010B5024BE1
S11314C09B680220984710BD8005002010B5024B90
S11314D0DB680320984710BD8005002010B5024B3F
S11314E01B690420984710BD8005002010B5024BED
S11314F05B690520984710BD80050020F0B58BB0CE
S113150005000C00160029600B681C209B0701D500
S11315100BB0F0BD0B681738DB07F9D40800604B3B
S11315209847604A116A871C0123BB400B4313622E
S113153009A92427F35D0B701430C3B2019318007A
S1131540594B98470198594B9847F05D0021584BE7
S113155098473378012B38D02B000C3329002831DD
S1131560002204C38B42FCD10023EB62AB62002453
S1131570AB862B863633EC540133EC540133EC54F4
S1131580353B6B722C712868454B984707004949D5
S1131590494B9847BF00494BFD502F6804AB80224C
S11315A01A705C707F3A9A70DC703378002B02D129
S11315B0002204AB9A70B36A0593F36A0693336B03
S11315C00793736B089300240BE023680C221343E6
S11315D02360C1E738003A4B98470AE00134042CF1
S11315E010D0E1B2A30002AA0C201218D05800288F
S11315F0F0D0431CF2D004A90870000CC0B2314BE7
S11316009847EBE733786B71337CAB71B37CEB7148
S1131610337D2B72002202ABDA803378012B28D081
S11316207368B2681343F2681343317C727C002AF6
S113163003D1254A9278920701D580221343B27CC4
S1131640002A02D0802292021143F27C002A02D0A6
S1131650802292001143327D002A02D0802292011E
S113166011433A6813433B607B680B437B60002063
S11316704EE728680A4B98471430C0B2134B98477A
S1131680010002AB9A1DB069114B98470300172063
S1131690002B00D03CE702AB06331B783B73BFE75B
S11316A0F5130000000400408D2400000124000014
S11316B03112000095180000311400008406002047
S11316C07D1200008525000000200041A9240000AF
S11316D07311000010B544791523012C01D01800B2
S11316E010BD047A0023002CF9D1002A58D04B787D
S11316F0002B44D003681B7EDB0710D40A78D10981
S11317000023002904D15309DB012E498C4663448C
S11317101F21114001228A409A610523DFE70A78DC
S1131720D4090023002C04D15309DB01254CA44621
S113173063441F2414400122A2405A6103681A7EA4
S1131740D20701D58A789A62C2790023002AC6D1C9
S113175002680421137E0B42FCD0117E002349074A
S1131760BDD5538B5B0701D5042353838379012BA8
S113177002D0936A0023B2E7936A0023AFE70A78A2
S1131780D1090023002904D15309DB010D498C46FA
S113179063441F21114001228A405A6100239EE7BD
S11317A00A78D1090023002904D15309DB01054932
S11317B08C4663441F21114001228A409A61002310
S11317C08DE7C04600440041F0B5DE4657464E461C
S11317D04546E0B583B08A463823C45C333B052CC8
S11317E002D01233002A4BD1180003B03CBC9046FF
S11317F09946A246AB46F0BD0237BFB241465346B6
S1131800595C09025B460B4318E08379012B2AD00B
S1131810936A013EB6B2664527D00268137E23421E
S1131820FCD07B1C9BB298465346DB5D9B4681797A
S11318300129E1D06946CB80CB884746117E2142FD
S113184002D0DB05DB0D9362C379002BE1D0026883
S1131850137E2B42FCD0137E2B42DAD0538B2B42C7
S1131860D3D05583D1E7936AD3E742790023012A81
S1131870BAD1016801320B7E1342FCD00023B3E7D6
S1131880013A96B2002701240425014B9C46C4E783
S1131890FFFF0000F8B58000704BC458266837235A
S11318A0E75C3622A25C1740337EB57D1D40EB0712
S11318B002D56379012B1ED06B0711D5738B5B079F
S11318C05AD5637A012B08D01E223823E254353BC3
S11318D06372023333753B074AD4B36A04237383B8
S11318E0AB0703D56379012B00D197E06DB2002DCE
S11318F000DAA9E0F8BD637A002B22D0637A002BCA
S1131900DAD02168E26A1378DBB2501CE062A07975
S1131910012827D09BB2DB05DB0D8B62A38E013B34
S11319209BB2A386A38E9BB2002BC5D10133337522
S1131930637A012BC0D1E379002BBDD10233B37597
S1131940BAE7474B1B88B362638E013B9BB2638645
S1131950638E9BB2002B01D1013333756379012B64
S1131960CCD0A9E75078000203430232E262D2E706
S11319702000A3699847B0E7637A012B28D0236835
S11319809B6ADB05DB0DDAB2A16A0A70A26A511CFC
S1131990A162A179012934D0238E013B9BB2238615
S11319A0238E9BB2002B00D09AE700223833E254F6
S11319B0343B3375637A022B29D0637A002B00D031
S11319C08EE7BB0700D48BE720002369984787E79D
S11319D023689B6A638E013B9BB26386638E9BB2D2
S11319E0002B00D07CE70433337500223433E254F7
S11319F0353B6372FB0700D472E72000E368984725
S1131A006EE71B0A5370A36A0133A362C4E77B0722
S1131A1000D465E720006369984761E7637A012B86
S1131A2000D063E7E379002B00D05FE7023333751E
S1131A300133637200223533E254FB0700D455E7C7
S1131A402000E368984751E78023337533767B069B
S1131A5000D44FE7636A200098474BE784060020D0
S1131A609C060020F0B5DE4657464E464546E0B596
S1131A7091B005000C00160029600800BC4B984783
S1131A80020023680520DB0706D511B03CBC904654
S1131A909946A246AB46F0BD236817309B07F4D4A1
S1131AA0B449086A971C0123BB4003430B620FA986
S1131AB02D27F35D0B701432D3B202931800AE4B92
S1131AC098470298AD4B9847F05D0021AC4B98477E
S1131AD0F37A6B712423F35CAB712523F35CEB7114
S1131AE0F37E2B72337F6B722B6898461800A04BE1
S1131AF09847143000220E2306A98C4663441A80AA
S1131B00328A02928023DB019A4200D19EE00FD9EF
S1131B10C023DB01029A9A4200D192E080231B0287
S1131B209A4200D01FE1032306930023079308E0A1
S1131B3080239B019A4200D015E1102306930F3BAA
S1131B40079333680593F368039373690493337EAF
S1131B509B462623F35C9A4673689946002B00D172
S1131B60A0E080235B05994500D184E0737E002BBF
S1131B7002D0B37E424693732A68029FD369002B36
S1131B80FCD10E3306AA944663441B8842469381D3
S1131B90059B039A1343049A13434A4613431F4372
S1131BA05B461B021F4353465B071F432723F35C1B
S1131BB0002B01D104331F43737E9B02327F5202F8
S1131BC01343727F120213432422B25C5204134360
S1131BD02522B25C12041343B17AF27A11431943F9
S1131BE03389FF2B00D181E080225204174319432B
S1131BF02C23F35C002B03D1624B9B789B0701D50C
S1131C0080231F432A68D369002BFCD143465960C3
S1131C102A68D369002BFCD143461F600EAB802297
S1131C201A7000225A70DA709A70336B0A93736BCD
S1131C300B93B36B0C93F36B02930D9300270AAED3
S1131C4063E008230693073B07937AE73368059319
S1131C50F368039373690493337E9B462623F35CF2
S1131C609A4673689946002B18D080235B059945E2
S1131C7001D0002025E02723F35C002B00D075E77A
S1131C80336A1F00C0B2404B984701000E2206ABD6
S1131C909C46624438003D4B984712E00823069363
S1131CA0002307932723F35C002B0ED0069B00939D
S1131CB0079B0E2206A98C466244B16A306A344FEF
S1131CC0B847002800D0E0E650E7336A1F00C0B2EE
S1131CD02D4B98470100069B0093079B0E2206A8F4
S1131CE08446624438002A4FB847EAE7F37E002B63
S1131CF000D17DE78023DB041F4379E72000254BD7
S1131D00984707E00137042F0DD0F9B2BB0098596A
S1131D100028F3D0431CF5D00EA90870000CC0B203
S1131D201D4B9847EEE70023EB602B616B61AB61C1
S1131D30EB612B62AB626B620022EB85AB853033C7
S1131D40EA540133EA540133EA540133EA5428686B
S1131D50074B984704001149114B9847A400114BB5
S1131D60E550002091E61023069300230793E8E64C
S1131D70F5130000000400408D240000012400003D
S1131D803112000000200041A9240000731100005A
S1131D909D1100007D12000085250000951E0000A5
S1131DA03114000084060020C2791C23002A01D1CA
S1131DB018007047C28D92B2173B002AF8D103680D
S1131DC0DA69002AFCD1198502211A7E0A42FCD064
S1131DD00023EDE7F0B5CE46474680B583B0050055
S1131DE001911720002A04D103B00CBC90469946F7
S1131DF0F0BDEB790530002BF6D02C68E369002B9D
S1131E00FCD1013A93B29946002601271F4B98460C
S1131E1011E0731C9BB2019A915D6A79012A17D073
S1131E2089B21E0028001A4B98474B46013B9BB2CF
S1131E309946434513D0237E3B42EAD1134B227E7D
S1131E403A42E6D1012B19D0013B002BF7D1E0E750
S1131E500236B6B2019AD35C1B021943E2E7237E31
S1131E609B070DD4094B0221227E0A420AD1012B81
S1131E700AD0013B002BF7D10020B5E71220B3E7CD
S1131E800020B1E70020AFE71220ADE7FFFF00001C
S1131E90A91D0000F8B58000624BC5582C68E369A1
S1131EA0002BFCD1237EA67D1E403023EB5C312227
S1131EB0AF5C1F40F30722D5EB8D9BB2002B1CD0E7
S1131EC0AA6A1378DBB2511CA962697901290ED080
S1131ED09BB2DB05DB0D2385EB8D013B9BB2EB85D0
S1131EE0002B0CD1013323750133A37507E051781E
S1131EF009020B430232AA62EBE701232375B307FD
S1131F0006D50223237500223133EA54FB071AD481
S1131F10730765D5AB8D9BB2002B5FD0638BDBB2AF
S1131F201A0714D43F221340002B34D09A0711D53A
S1131F301A223223EA54303B63837B0750D52800AE
S1131F406B6998474CE02800EB689847E0E7372234
S1131F501340E9E75A0705D51E223223EA542E3BE3
S1131F606383EAE7DA0705D513223223EA54313BC7
S1131F706383E2E7DA0605D542223223EA54223BA0
S1131F806383DAE720221A42D7D021323223EA547B
S1131F90123B6383D1E7238DDB05DB0DDAB2696A7B
S1131FA00A706A6A511C69626979012910D0AB8D83
S1131FB0013B9BB2AB85002B12D104332375002265
S1131FC02E33EA54BB070BD528002B69984707E04A
S1131FD01B0A53706B6A01336B62E8E704232375B1
S1131FE0F30604D5102323752376FB060ED4B3061B
S1131FF004D52023237523763B070BD4330704D55C
S1132000082323752376BB0608D4F8BD2800EB69A2
S11320109847ECE72800AB699847EFE72B6A28005C
S11320209847F2E78406002010B5082803D88000FA
S11320301B4B1B589F46002030E01A4B18692DE0BB
S1132040194B1B6A9B059B0F1848D84026E0154B7B
S1132050586923E0134B1B6800209B071ED51249C7
S11320601022CB681A42FCD00E4B1B685B0701D4CC
S11320700F4813E000200F4B98470A4B9B681B0442
S11320801B0C58430AE05023074AD35C00205B072B
S113209004D5044BD86801E08020000210BDC0467E
S11320A09C3A0000980500200008004000127A00C5
S11320B0006CDC02A924000070B50C490B6A04789A
S11320C0857840780122104080014026B3430343C1
S11320D02A40D20180208343134303222240120268
S11320E00348034013430B6270BDC0460008004020
S11320F0FFFCFFFF082803D88000254B1B589F4690
S1132100172044E0234A136A02210B431362002080
S11321103DE0204A936902210B439361002036E09D
S11321201C4A138A02210B43138200202FE0194A10
S1132130938A02210B439382002028E016490B68FE
S1132140022213430B60134B9A8419000E32CB689E
S11321501A42FCD0104A91680E4BD96252689A62B6
S113216000229A8419001032CB681A42FCD00A4B20
S11321701B689BB2074A9384002008E00549442267
S11321808B5C022003438B54002000E00020704746
S1132190C03A00000008004098050020F0B5C6468B
S11321A000B584B0C222D200214B9A60214A536800
S11321B01E218B43536001236A46137000241E4D75
S11321C0E0B26946A8470134252CF9D103A80024BC
S11321D044700123984683700470184B9847062076
S11321E0174B9847174B98476B465C7006271F7030
S11321F01C725C721023019369460320124EB0478F
S11322000320124DA847124B1C725C729C72DC7244
S1132210434601936B465C701F701C725C72694686
S11322200020B0470020A84704B004BC9046F0BD8D
S113223000080040004000418D240000B920000047
S1132240F52000005522000079220000312300000F
S113225000040040064A936908210B43936101225C
S1132260044B1A7019000B781342FCD17047C04616
S113227000040040000C004070B5060004000D7816
S11322802D0205434B78002B02D08023DB021D4333
S11322904B7A002B02D080231B031D43486801287E
S11322A010D9431E184234D1022830D90223002207
S11322B001325B009842FBD812023243140080239F
S11322C05B031D430B7A002B02D080239B031D4329
S11322D0134A53785BB2002BFBDB124B9847124B2B
S11322E01E700F4A53785BB2002BFBDB0C4B9C60D7
S11322F01A0053785BB2002BFBDB094A5368802138
S113230049020B401D435560084B984770BD00229D
S1132310D2E70402344380239B021D43D2E7C04624
S1132320000C0040ED0F0000080C00402D100000D0
S113233010B504000B4A53785BB2002BFBDB0A4B4D
S113234098470A4B1C70074A53785BB2002BFBDB9F
S1132350044A516880235B020B435360044B984743
S113236010BDC046000C0040ED0F0000040C0040FE
S11323702D10000070B504001A4A53785BB2002B8C
S1132380FBDB194B9847194B1C70164A53785BB208
S1132390002BFBDB134E7068C004C00E144B98472F
S11323A00500124B1C707668F602F60F114B1C7078
S11323B00C4A53785BB2002BFBDB0A4B9C6824026B
S11323C0240C0D4B9847002E07D1012C07D921006E
S11323D028000A4B9847050001E00134E540280035
S11323E070BDC046000C0040ED0F0000040C00401E
S11323F029200000080C00402D100000C52C00000E
S113240010B50400064B9847064B1C70064A5388C7
S11324108021C9010B435380044B984710BDC0462B
S1132420ED0F0000020C0040000C00402D100000D5
S113243010B504000F4B98470F4B1C700F4A53887C
S11324401B05180F53880E490B40538053880D49C0
S11324500B40538011008022D2014B881342FCD1DF
S113246006494A8803020648024013434B80064B40
S1132470984710BDED0F0000020C0040000C004016
S1132480FFF0FFFFFFBFFFFF2D10000010B50C7819
S113249024020443024B9847A4B2024B5C8010BD53
S11324A031240000000C004010B50400064B98478E
S11324B0064B1C70064B5C882405240F054B98477B
S11324C02000054B984710BDED0F0000020C0040A2
S11324D0000C00402D1000007523000030B5D378A7
S11324E0002B35D11378802B29D01B06802464025D
S11324F0234354780225AC4306D19478002C20D190
S11325008024A402234341605478013C012C1CD94B
S11325100D042D0CA024E4052C431C4384620D0CF3
S1132520D02424062C431C438462D478002C22D16A
S11325305B031CD59378012B1ED0416117E0002367
S1132540D7E7C024E4022343DDE70D4C2340DFE753
S113255041600C04240CA023DB05234383620C0C90
S1132560D0231B0623438362D378002B03D15378F3
S1132570013B012B02D930BD8161F8E78160FAE7A4
S1132580FFFFFBFF10B50A00C1090023002904D195
S11325904309DB0105498C4663441F242040012183
S11325A081401800024B984710BDC04600440041CA
S11325B0DD2400007047000010B5054B9847054B1B
S11325C09847054B9847054B9847054B984710BDCE
S11325D09D2100005D100000B5250000B525000018
S11325E0B5250000FEE70000F8B52A4A2A4B9A42B6
S11325F011D01A00294B9A420DD2294A03339B1A4F
S11326009B0801339B000022234822498C588450A4
S113261004329A42FAD1234A234B9A420AD2D34330
S113262021495B1803218B4304339B18002102C208
S11326309342FCD11D4AFF211D4B8B439360FD390E
S113264090235B001B4AD1501B4AD3780325AB432C
S113265002242343D370D3780C27BB430826334387
S1132660D370164B987B30229043202210439873EA
S1132670997BB943314399739A7BAA4322439A7352
S11326800F4A536880210B4353600E4B98470E4BFF
S11326909847FEE7983B00000000002080000020DF
S11326A00400002080000020D806002000ED00E097
S11326B0000000000070004100500041004800414B
S11326C000400041312E0000B92A00000300064AF0
S11326D01268002A04D0044A1068C31813607047B3
S11326E00249014A1160F6E7B0050020D82600200F
S11326F043684B609A688A609A685160996008617F
S1132700036801330360704703694268816891601C
S11327108268416851605A68904205D00022026183
S11327201A68501E1860704782685A60F6E770474E
S1132730EFF3108072B67047002080F31088704762
S1132740EFF309800E4B1A6820381060F0C044463D
S11327504D4656465F46F0C008B572B600F0D2F852
S113276062B60CBC116808681030F0C8A046A946CF
S1132770B246BB4680F309882038F0C81847C046E3
S1132780B405002010B5074B98470400064B984742
S1132790002803D080225205044B1A602000044B09
S11327A0984710BD31270000E127000004ED00E048
S11327B03B270000084B1B681B68002B07D0064B07
S11327C01B68DB68DB685A68044B1A607047012297
S11327D05242024B1A60F9E7B805002018000020A5
S11327E0F0B583B0394B1B68002B61D1384B1A68A4
S11327F001321A601E68002E12D1364B1B681B680A
S1132800002B01D072B6FEE7324A1168324B1868C9
S113281010601960314A136801331360304B9847D4
S1132820304B1B6800249E4233D30024294F3B685D
S11328301B68002B29D0274B1B68DB68DD686B689D
S11328409E4232D32B1D01931800274B9847AB6A45
S1132850002B03D028001830234B9847EB6A234AF7
S11328601268934201D9214A13609800C01880006D
S11328701F4B181801991F4B98471F4B1B68EA6A96
S1132880DB6A9A42D3D30124D1E701225242154B89
S11328901A60194B1B68DA6A93009B189B00144A50
S11328A09B58012B09D9012407E00E4A1360F0E775
S11328B0124A1368013313600024114B1B68002B68
S11328C000D00124200003B0F0BDC046280600203B
S11328D034060020B8050020BC0500203006002086
S11328E0B527000018000020092700002C0600204E
S11328F0C0050020F1260000B405002024060020B5
S11329003806002010B5264B1B68002B21D100226D
S1132910244B1A60244B1A6893009B189B00234A8B
S11329209B58002B19D1204B1B68002B0FD01E4A3B
S11329301E4C10001368013B136011688B005B1878
S11329409B001B59002B08D10368002BF2D172B6EF
S1132950FEE70122134B1A6010BD134B1A6813488B
S113296093009918890041184C6864684C609B185E
S11329709B000833C3189C4209D093009A18920014
S11329800A4B9A185368DA68094B1A60E4E76068DE
S113299093009B189B000549CB185860EDE7C0468F
S11329A028060020380600202C060020C005002040
S11329B0B405002030B591B08023DB0500930023DB
S11329C00193FF2269460A8100228B72CB72962101
S11329D089010891012124206C462154013021549D
S11329E025316354013163540A9305316354013131
S11329F0635405932382E376227622776276132347
S1132A00A376627780235B030393124B0C93124BE0
S1132A100D9301235B420E930F93104D104C6A46A5
S1132A2010492800A0470028F9D10C4D2C6820003B
S1132A300D4B98471F2318401E3B83400B4A1360DD
S1132A402A68D369002BFCD1236802221343236034
S1132A5011B030BD0300040003000500A0060020EF
S1132A60651A0000000800426D14000000E100E057
S1132A7010B5064B9847162802D0002801D110BD86
S1132A80FEE7034B9847014B9847F8E749060000D7
S1132A902D07000010B5064B9B685B0500D410BDE4
S1132AA08022D200024B9A60024B9847F7E7C04657
S1132AB00008004075080000F0B5C64600B5A8B08F
S1132AC06C4B984700266B469E706B4B8022D2025B
S1132AD09A61802212039A61802252059A6102252A
S1132AE06B461D705E7069461220644CA0476946AF
S1132AF01320A04769461C20A0476B461E7001277F
S1132B005F7069461620A04769460620A0476946BB
S1132B100720A0475A4B98476B461E805E809F71E2
S1132B20DF7110236A461371203353716946002004
S1132B30544B9847544B5A6B2A435A638022D20011
S1132B405A60524B1D60524B9847524B984722A9EA
S1132B50514B0A0013CB13C203CB03C21B8813804F
S1132B601CA94E4B0A0013CB13C203CB03C21B8810
S1132B70138016A94A4B0A0013CB13C203CB03C21A
S1132B801B88138007AC0623237065702100002086
S1132B90444B9847FF232370637021000020424B6D
S1132BA0984763782278414902A8414CA04702AD76
S1132BB00024404F404E28783B0000222100B047BB
S1132BC001350634E4B2662CF5D13C4B98464EE010
S1132BD03B6A5B061BD53B6A1B0630D53B6A5B022E
S1132BE0F6D4162222A93648C04701220A213448C5
S1132BF0C04722AE0024304D30782E4B0E222100E7
S1132C00A84701360634E4B27E2CF5D1E0E72C4C1B
S1132C1016221CA92000294EB04701220A212000B7
S1132C20B0471CAE0024244D3078224B0E222100E4
S1132C30A84701360634E4B27E2CF5D1CBE7204E0A
S1132C40162216A930001D4CA04701220A2130008B
S1132C50A04716AF0024174D174E38782B000E22CC
S1132C602100B04701370634E4B27E2CF5D1024F7F
S1132C70B4E7C046B92500000044004195100000A7
S1132C80712A0000150100000008004000E100E086
S1132C90B52900002D0F0000FC3A0000143B000091
S1132CA02C3B0000A50800000D080000E43A0000D9
S1132CB09D2E000008000020090E0000D51D000014
S1132CC0A0060020002243088B4274D303098B42E0
S1132CD05FD3030A8B4244D3030B8B4228D3030CE8
S1132CE08B420DD3FF22090212BA030C8B4202D38A
S1132CF01212090265D0030B8B4219D300E0090AB2
S1132D00C30B8B4201D3CB03C01A5241830B8B42BA
S1132D1001D38B03C01A5241430B8B4201D34B03A3
S1132D20C01A5241030B8B4201D30B03C01A524108
S1132D30C30A8B4201D3CB02C01A5241830A8B428D
S1132D4001D38B02C01A5241430A8B4201D34B0276
S1132D50C01A5241030A8B4201D30B02C01A5241DA
S1132D60CDD2C3098B4201D3CB01C01A524183098E
S1132D708B4201D38B01C01A524143098B4201D3C8
S1132D804B01C01A524103098B4201D30B01C01AF3
S1132D905241C3088B4201D3CB00C01A524183086D
S1132DA08B4201D38B00C01A524143088B4201D39A
S1132DB04B00C01A5241411A00D2014652411046FA
S1132DC07047FFE701B5002000F006F802BDC046D9
S1132DD00029F7D076E770477047C046F0B5CE4675
S1132DE0474615042D0C2E0080B50704140C3F0C27
S1132DF09946030C7E435D43674363437F19340C58
S1132E00E4199C46A54203D980235B029846C44436
S1132E104B46514343433604360C250C2404654485
S1132E20A4195918491920000CBC90469946F0BDC4
S1132E3070B500260C4D0D4C641BA410A64209D19C
S1132E40002600F099FE0A4D0A4C641BA410A64209
S1132E5005D170BDB300EB5898470136EEE7B300D7
S1132E60EB5898470136F2E7843B0000843B0000AE
S1132E70843B0000883B0000002310B59A4200D137
S1132E8010BDCC5CC4540133F8E7030082189342AC
S1132E9000D1704719700133F9E700000EB410B582
S1132EA09DB002A9029008610B48822488604861A1
S1132EB0012040421FABC881084804CBA40000682D
S1132EC001938C8100F06EF80023029A13701DB0F8
S1132ED010BC08BC03B01847FFFFFF7F1C00002094
S1132EE0F0B58E6885B007000C00039201939E42F2
S1132EF039D890238A89DB001A4234D00325096922
S1132F0023685B1A0293636902985D43EB0F5D19B2
S1132F10019B6D1001331B18AB4200D91D005305F2
S1132F2032D52900380000F031FB061E09D10C23EC
S1132F303B6040230120A28940421343A38105B092
S1132F40F0BD029A2169FFF797FFA389144A1A403A
S1132F5080231343A381029B2661F61826606561D2
S1132F60019EED1AA560019BB34200D21E003200FF
S1132F700399206800F0ADFAA36800209B1BA360AE
S1132F8023689E192660DAE72A00380000F05CFB0B
S1132F90061EE0D12169380000F0AEFAC7E7C0464A
S1132FA07FFBFFFFF0B59FB0029005938B890F0064
S1132FB016001B0611D50B69002B0ED1402100F021
S1132FC0E5FA38603861002805D10C23029A0138EB
S1132FD013601FB0F0BD40237B61002306AD6B611D
S1132FE020336B761033AB7634002378002B47D133
S1132FF0A31B04930DD0A31B320039000298FFF7E2
S11330006FFF431C00D1B5E06A69049B9446634496
S11330106B612378002B00D1ACE0012200235242E3
S11330206A6002A95432521801342B60EB60AB6021
S11330301370AB65584E05222178300000F03EFA3B
S1133040621C002820D12968CB0604D5532302AE84
S113305020309B1918700B0704D553232B2002AE84
S11330609B19187023782A2B16D000200A21099B5B
S11330702278303A092A55D9002815D0099313E04B
S1133080252BB5D00134B0E70123801B8340296888
S113309014000B432B60CDE7059B181D1B6805909E
S11330A0002B39DB0993140023782E2B0BD1637882
S11330B0621C2A2B3ED1059B02341A1D1B68059203
S11330C0002B34DB0793354E21780322300000F0C7
S11330D0F5F9002806D04023801B83402A68013478
S11330E013432B60217806222D48661C297600F0B4
S11330F0E5F9002846D02B4B002B2FD12968059BDE
S11331000722C90528D59B189343083305936B6997
S1133110039A9B186B6167E75B42EB6002230B43E6
S11331202B60C0E74B4301349B180120A0E7012327
S11331305B42C7E7002314000A201A006B60217861
S11331403039092903D9002BBDD00792BBE742438C
S1133150013452180123F2E70733D5E705AB009396
S11331603A00114B2900029800E000BF0390039B32
S11331700133CCD1BB890B985B0600D429E701202D
S1133180404226E705AB00933A00074B290002981A
S113319000F07AF8EAE7C046443B00004A3B0000EE
S11331A04E3B000000000000E12E0000F7B51500C2
S11331B001938A680B6900900C00934200DA1300B3
S11331C022002B6043321278002A01D001332B6095
S11331D023689B0602D52B6802332B6006272368DD
S11331E01F4027D0230043331B785A1E9341226883
S11331F0920630D42200019943320098089EB047C9
S1133200431C25D0062320682A68E1680340002572
S1133210042B03D18D1AEB43DB171D40A3682269ED
S1133220934201DD9B1AED180027BD4220D10020F6
S113323010E00137E3682A689B1A9F42D2DA220021
S11332400123193201990098089EB047431CF0D11C
S113325001204042FEBD3020E118433108702100B6
S11332605A1C45310978A218433202331170C1E760
S1133270220001231A3201990098089EB047431C8A
S1133280E6D00137D1E70000F0B58BB006920A0012
S113329043320793059004920A7E0C00109B6E2A19
S11332A000D18FE017D8632A2CD008D8002A00D187
S11332B099E0582A54D026004236327029E0642A14
S11332C001D0692AF7D121681A68080623D5111D8F
S11332D01960156825E0732A00D188E008D86F2AA0
S11332E029D0702AE7D1202209680A43226003E02A
S11332F0752A20D0782ADED1220078214532117037
S11333006C4A30E00E001A684236111D19601368C9
S11333103370012379E04906D9D5111D19600023C2
S1133320D55E002D03DA2D23049A6D421370624B8F
S11333300A2703932FE020681968050603D5081DA2
S113334018600D6805E04006F9D50D68081D186081
S1133350ADB2594B082703936F2A18D00A2716E0F9
S113336045310A70544A03921A682168101D186086
S11333701568080622D5CB0702D5202319432160FE
S11333801027002D03D1202322689A4322602300B2
S1133390002243331A706368A360002B5CDB0422B1
S11333A0216891432160002D58D1049E002B64D0E4
S11333B02600039B42361B7833705EE04806DAD55C
S11333C0ADB2D8E709681A68080605D5111D196059
S11333D0136862691A6006E04906F7D5111D196081
S11333E01368A28A1A800023049E236154E01A6899
S11333F0111D1960166800216268300000F05EF843
S1133400002801D0801B6060636823610023049A54
S1133410137041E02369320006990598079DA84777
S1133420431C43D0236800259B070FD4099BE06805
S113343098423DDA18003BE0220001231932069934
S11334400598079EB047431C30D00135E368099ABC
S11334509B1A9D42F0DBE9E7002DA9D0049E2800C9
S11334603900FFF7B5FC039B013E5B5C2800337019
S11334703900FFF727FC051EF1D1082F09D1236875
S1133480DB0706D563682269934202DC3023013EE0
S11334903370049B9B1B2361079B09AA00932100A3
S11334A0069B0598FFF782FE431CB3D101204042DE
S11334B00BB0F0BD663B0000553B0000C9B282185A
S11334C0904201D10020704703788B42FBD0013039
S11334D0F6E710B5884202D98B18984208D3002326
S11334E09A4207D0CC5CC4540133F9E78B5C835413
S11334F0013AFBD210BD000070B50500002910D0C0
S11335000C1F2368002B00DAE418280000F0D4F81C
S11335101D4A1368002B05D163601460280000F075
S1133520CCF870BDA34209D9216860188342F3D155
S113353018685B6841182160EEE713005A68002A96
S113354001D0A242F9D919685818A0420BD12068B9
S11335500918581819608242E0D11068526841185D
S113356019605A60DAE7A04202D90C232B60D5E730
S113357021686018824203D11068526841182160A2
S113358062605C60CAE7C0463C060020032370B555
S1133590CD1C9D43083506000C2D1ED20C25A942D6
S11335A01DD8300000F088F8254A1468210000294D
S11335B019D1244C2368002B03D1300000F06AF8A1
S11335C020602900300000F065F8431C2CD10C2346
S11335D03000336000F071F803E0002DDFDA0C23D3
S11335E03360002070BD0B685B1B1AD40B2B03D90E
S11335F00B60CC18256003E08C420ED16368136025
S1133600300000F05AF8200007220B30231D9043AD
S1133610C31AE7D05A42E250E4E74B6863600C00F7
S1133620EEE70C004968C2E70323C41C9C43A04294
S1133630E0D0211A300000F02DF8431CDAD1C6E79F
S11336403C06002040060020F8B507000D001600D7
S1133650002905D11100FFF799FF04002000F8BDEF
S1133660002A03D1FFF748FF3400F7E700F026F8FB
S11336702C008642F2D931003800FFF787FF041E80
S1133680ECD029003200FFF7F7FB29003800FFF7E0
S113369033FFE3E7002370B5064C05000800236000
S11336A0FFF714F8431C03D12368002B00D02B60D0
S11336B070BDC046D4060020704770470B1F1B68BE
S11336C0181F002B01DA0B58C0187047980200002D
S11336D098020000740200009802000074020000C6
S11336E05A0200005A0200009802000098020000EA
S11336F0980200009802000098020000980200005E
S1133700980200009802000098020000980200004D
S1133710980200009802000098020000980200003D
S1133720980200009802000098020000980200002D
S1133730980200009802000098020000980200001D
S1133740980200009802000098020000980200000D
S113375098020000980200009802000098020000FD
S113376098020000980200009802000098020000ED
S113377098020000980200009802000098020000DD
S113378098020000980200009802000098020000CD
S113379098020000980200009802000098020000BD
S11337A098020000980200009802000098020000AD
S11337B0980200009802000098020000980200009D
S11337C098020000980200009802000074020000B1
S11337D0740200007C0200007C0200007C020000F5
S11337E07C020000454574414D4F52502E756D4585
S11337F00000000000000020202020200020505065
S113380050000000005050F850F850502078A0703C
S113381028F020C0C810204098186090A040A890BC
S1133820686020400000000010204040402010400C
S1133830201010102040005020F8205000002020BC
S1133840F820200000000000602040000000F80084
S113385000000000000000606000081020408000AC
S1133860708898A8C88870206020202020707088F4
S113387008102040F8F8102010088870103050907C
S1133880F81010F880F008088870304080F08888BC
S113389070F80810204040407088887088887070E4
S11338A088887808106000606000606000006060D4
S11338B000602040081020402010080000F800F8A4
S11338C000008040201020408070880810200020D4
S11338D070880868A8A87070888888F88888F08834
S11338E088F08888F070888080808870E09088886C
S11338F08890E0F88080F08080F8F88080E0808014
S11339008070888080988870888888F88888887013
S1133910202020202070381010101090608890A073
S1133920C0A09088808080808080F888D8A888880B
S113393088888888C8A898888870888888888870C3
S1133940F08888F080808070888888A89068F088E3
S113395088F0A09088788080700808F0F8202020F3
S1133960202020888888888888708888888888505B
S113397020888888A8A8D888888850205088888873
S1133980885020202020F80810204080F83820207B
S11339902020203800804020100800E02020202033
S11339A020E020508800000000000000000000F823
S11339B040201000000000000070087888788080A3
S11339C0B0C88888F0000070808088700808689803
S11339D088887800007088F88070304840E0404063
S11339E040000078887808308080B0C888888820B3
S11339F0006020202070100030101090604040487B
S1133A0050605048602020202020700000D0A8A8DA
S1133A1088880000B0C8888888000070888888700A
S1133A200000F088F08080000068987808080000A2
S1133A30B0C8808080000070807008F04040E04092
S1133A40404830000088888898680000888888503A
S1133A502000008888A8A8500000885020508800C2
S1133A600088887808700000F8102040F8102020A2
S1133A704020201020202020202020402020102022
S1133A802040000000080042000C004200100042E8
S1133A900014004200180042001C00423A200000BA
S1133AA036200000362000009820000098200000F6
S1133AB04E2000004020000054200000862000001A
S1133AC02021000000210000002100008C210000C2
S1133AD0122100002E210000042100003C210000DE
S1133AE07C210000506C616361723A20252E33649E
S1133AF0207820252E33640A0000000053414D52E3
S1133B0032315F62617255702020202020202020F5
S1133B102000000053414D5232315F626172446FA4
S1133B20776E2020202020202000000053414D5299
S1133B3032315F7265736574454550524F4D2E2E78
S1133B402E000000232D302B2000686C4C0065668D
S1133B5067454647003031323334353637383941DA
S1133B6042434445460030313233343536373839F0
S1133B706162636465660000F8B5C046F8BC08BCC1
S1133B809E467047DD000000F8B5C046F8BC08BC8E
S10B3B909E467047B5000000D9
S1133B98401F00000800000000000000F03700008B
S1133BA80607207D01000000FFFFFFFF2000002022
S1133BB800000000000000000000000000000000F9
S1133BC800000000000000000000000000000000E9
S1133BD800000000000000000000000000000000D9
S1133BE800000000000000000000000000000000C9
S1133BF800000000000000000000000000000000B9
S1133C0800000000000000000000000000000000A8
S90325E9EE
